{
  "contractName": "FlightSuretyData",
  "abi": [
    {
      "inputs": [
        {
          "internalType": "address",
          "name": "_initialairAccount",
          "type": "address"
        },
        {
          "internalType": "string",
          "name": "_initialairName",
          "type": "string"
        }
      ],
      "payable": false,
      "stateMutability": "nonpayable",
      "type": "constructor"
    },
    {
      "anonymous": false,
      "inputs": [
        {
          "indexed": true,
          "internalType": "address",
          "name": "airAccount",
          "type": "address"
        },
        {
          "indexed": false,
          "internalType": "uint256",
          "name": "amount",
          "type": "uint256"
        }
      ],
      "name": "AirlineFunded",
      "type": "event"
    },
    {
      "anonymous": false,
      "inputs": [
        {
          "indexed": true,
          "internalType": "address",
          "name": "airAccount",
          "type": "address"
        },
        {
          "indexed": false,
          "internalType": "string",
          "name": "airName",
          "type": "string"
        }
      ],
      "name": "AirlineRegistered",
      "type": "event"
    },
    {
      "anonymous": false,
      "inputs": [
        {
          "indexed": true,
          "internalType": "address",
          "name": "airAccount",
          "type": "address"
        },
        {
          "indexed": true,
          "internalType": "string",
          "name": "airName",
          "type": "string"
        },
        {
          "indexed": true,
          "internalType": "uint256",
          "name": "timestamp",
          "type": "uint256"
        }
      ],
      "name": "InsuranceCreditAvailable",
      "type": "event"
    },
    {
      "anonymous": false,
      "inputs": [
        {
          "indexed": true,
          "internalType": "address",
          "name": "insureeAccount",
          "type": "address"
        },
        {
          "indexed": false,
          "internalType": "uint256",
          "name": "amount",
          "type": "uint256"
        }
      ],
      "name": "InsuranceCredited",
      "type": "event"
    },
    {
      "anonymous": false,
      "inputs": [
        {
          "indexed": true,
          "internalType": "address",
          "name": "insureeAccount",
          "type": "address"
        },
        {
          "indexed": false,
          "internalType": "uint256",
          "name": "amount",
          "type": "uint256"
        }
      ],
      "name": "InsurancePaid",
      "type": "event"
    },
    {
      "anonymous": false,
      "inputs": [
        {
          "indexed": true,
          "internalType": "address",
          "name": "insureeAccount",
          "type": "address"
        },
        {
          "indexed": false,
          "internalType": "uint256",
          "name": "amount",
          "type": "uint256"
        },
        {
          "indexed": false,
          "internalType": "address",
          "name": "airAccount",
          "type": "address"
        },
        {
          "indexed": false,
          "internalType": "string",
          "name": "airName",
          "type": "string"
        },
        {
          "indexed": false,
          "internalType": "uint256",
          "name": "timestamp",
          "type": "uint256"
        }
      ],
      "name": "InsurancePurchased",
      "type": "event"
    },
    {
      "payable": true,
      "stateMutability": "payable",
      "type": "fallback"
    },
    {
      "constant": false,
      "inputs": [
        {
          "internalType": "address",
          "name": "contractAddress",
          "type": "address"
        }
      ],
      "name": "authorizeCaller",
      "outputs": [],
      "payable": false,
      "stateMutability": "nonpayable",
      "type": "function"
    },
    {
      "constant": true,
      "inputs": [],
      "name": "isOperational",
      "outputs": [
        {
          "internalType": "bool",
          "name": "",
          "type": "bool"
        }
      ],
      "payable": false,
      "stateMutability": "view",
      "type": "function"
    },
    {
      "constant": false,
      "inputs": [
        {
          "internalType": "bool",
          "name": "mode",
          "type": "bool"
        }
      ],
      "name": "setOperatingStatus",
      "outputs": [],
      "payable": false,
      "stateMutability": "nonpayable",
      "type": "function"
    },
    {
      "constant": false,
      "inputs": [
        {
          "internalType": "address",
          "name": "_airAccount",
          "type": "address"
        },
        {
          "internalType": "string",
          "name": "_airName",
          "type": "string"
        }
      ],
      "name": "registerAirline",
      "outputs": [],
      "payable": false,
      "stateMutability": "nonpayable",
      "type": "function"
    },
    {
      "constant": false,
      "inputs": [
        {
          "internalType": "address payable",
          "name": "_insureeAccount",
          "type": "address"
        },
        {
          "internalType": "address",
          "name": "_airAccount",
          "type": "address"
        },
        {
          "internalType": "string",
          "name": "_airName",
          "type": "string"
        },
        {
          "internalType": "uint256",
          "name": "_timestamp",
          "type": "uint256"
        }
      ],
      "name": "buy",
      "outputs": [],
      "payable": true,
      "stateMutability": "payable",
      "type": "function"
    },
    {
      "constant": false,
      "inputs": [
        {
          "internalType": "uint256",
          "name": "_creditPercentage",
          "type": "uint256"
        },
        {
          "internalType": "address",
          "name": "_airAccount",
          "type": "address"
        },
        {
          "internalType": "string",
          "name": "_airName",
          "type": "string"
        },
        {
          "internalType": "uint256",
          "name": "_timestamp",
          "type": "uint256"
        }
      ],
      "name": "creditInsurees",
      "outputs": [],
      "payable": false,
      "stateMutability": "nonpayable",
      "type": "function"
    },
    {
      "constant": false,
      "inputs": [
        {
          "internalType": "address payable",
          "name": "_insureeAccount",
          "type": "address"
        }
      ],
      "name": "pay",
      "outputs": [],
      "payable": false,
      "stateMutability": "nonpayable",
      "type": "function"
    },
    {
      "constant": false,
      "inputs": [
        {
          "internalType": "address",
          "name": "_airAccount",
          "type": "address"
        }
      ],
      "name": "fund",
      "outputs": [],
      "payable": true,
      "stateMutability": "payable",
      "type": "function"
    },
    {
      "constant": true,
      "inputs": [
        {
          "internalType": "address",
          "name": "_airAccount",
          "type": "address"
        }
      ],
      "name": "isAirline",
      "outputs": [
        {
          "internalType": "bool",
          "name": "",
          "type": "bool"
        }
      ],
      "payable": false,
      "stateMutability": "view",
      "type": "function"
    },
    {
      "constant": true,
      "inputs": [
        {
          "internalType": "address",
          "name": "_airAccount",
          "type": "address"
        }
      ],
      "name": "isAirlineFunded",
      "outputs": [
        {
          "internalType": "bool",
          "name": "",
          "type": "bool"
        }
      ],
      "payable": false,
      "stateMutability": "view",
      "type": "function"
    },
    {
      "constant": true,
      "inputs": [
        {
          "internalType": "address",
          "name": "_airAccount",
          "type": "address"
        }
      ],
      "name": "getFund",
      "outputs": [
        {
          "internalType": "uint256",
          "name": "",
          "type": "uint256"
        }
      ],
      "payable": false,
      "stateMutability": "view",
      "type": "function"
    },
    {
      "constant": true,
      "inputs": [],
      "name": "getAirlinesCount",
      "outputs": [
        {
          "internalType": "uint256",
          "name": "",
          "type": "uint256"
        }
      ],
      "payable": false,
      "stateMutability": "view",
      "type": "function"
    },
    {
      "constant": true,
      "inputs": [
        {
          "internalType": "address payable",
          "name": "_insureeAccount",
          "type": "address"
        },
        {
          "internalType": "address",
          "name": "_airAccount",
          "type": "address"
        },
        {
          "internalType": "string",
          "name": "_airName",
          "type": "string"
        },
        {
          "internalType": "uint256",
          "name": "_timestamp",
          "type": "uint256"
        }
      ],
      "name": "getAmountPaidByInsuree",
      "outputs": [
        {
          "internalType": "uint256",
          "name": "amountPaid",
          "type": "uint256"
        }
      ],
      "payable": false,
      "stateMutability": "view",
      "type": "function"
    },
    {
      "constant": true,
      "inputs": [
        {
          "internalType": "address payable",
          "name": "_insureeAccount",
          "type": "address"
        }
      ],
      "name": "getInsureePayoutCredits",
      "outputs": [
        {
          "internalType": "uint256",
          "name": "amount",
          "type": "uint256"
        }
      ],
      "payable": false,
      "stateMutability": "view",
      "type": "function"
    }
  ],
  "bytecode": "0x60806040526001600060146101000a81548160ff02191690831515021790555060006003553480156200003157600080fd5b5060405162002a1b38038062002a1b833981810160405260408110156200005757600080fd5b8101908080519060200190929190805160405193929190846401000000008211156200008257600080fd5b838201915060208201858111156200009957600080fd5b8251866001820283011164010000000082111715620000b757600080fd5b8083526020830192505050908051906020019080838360005b83811015620000ed578082015181840152602081019050620000d0565b50505050905090810190601f1680156200011b5780820380516001836020036101000a031916815260200191505b50604052505050336000806101000a81548173ffffffffffffffffffffffffffffffffffffffff021916908373ffffffffffffffffffffffffffffffffffffffff1602179055506200017482826200017c60201b60201c565b5050620004c7565b6200019960016003546200038f60201b62001e331790919060201c565b6003819055506040518060a001604052808373ffffffffffffffffffffffffffffffffffffffff1681526020018281526020016001151581526020016000151581526020016000815250600260008473ffffffffffffffffffffffffffffffffffffffff1673ffffffffffffffffffffffffffffffffffffffff16815260200190815260200160002060008201518160000160006101000a81548173ffffffffffffffffffffffffffffffffffffffff021916908373ffffffffffffffffffffffffffffffffffffffff16021790555060208201518160010190805190602001906200028792919062000418565b5060408201518160020160006101000a81548160ff02191690831515021790555060608201518160020160016101000a81548160ff021916908315150217905550608082015181600301559050508173ffffffffffffffffffffffffffffffffffffffff167f472401a2a0d12f4350699788282af698829c7506b130af7979dbf561cecc0605826040518080602001828103825283818151815260200191508051906020019080838360005b838110156200035057808201518184015260208101905062000333565b50505050905090810190601f1680156200037e5780820380516001836020036101000a031916815260200191505b509250505060405180910390a25050565b6000808284019050838110156200040e576040517f08c379a000000000000000000000000000000000000000000000000000000000815260040180806020018281038252601b8152602001807f536166654d6174683a206164646974696f6e206f766572666c6f77000000000081525060200191505060405180910390fd5b8091505092915050565b828054600181600116156101000203166002900490600052602060002090601f016020900481019282601f106200045b57805160ff19168380011785556200048c565b828001600101855582156200048c579182015b828111156200048b5782518255916020019190600101906200046e565b5b5090506200049b91906200049f565b5090565b620004c491905b80821115620004c0576000816000905550600101620004a6565b5090565b90565b61254480620004d76000396000f3fe6080604052600436106100dd5760003560e01c80632c388d5d1161007f578063cd905dff11610059578063cd905dff14610751578063ee38a74914610780578063f53b6d6514610826578063f71882b91461088f576100dd565b80632c388d5d146105d85780633518317014610629578063b42c1d40146106ec576100dd565b8063110466ed116100bb578063110466ed146103b95780631f428b4b146103f657806323024408146104da5780632adf4c5b1461051e576100dd565b806305e931f4146102d45780630c11dedd146102ff5780630e248a1114610350575b60008036905011610156576040517f08c379a00000000000000000000000000000000000000000000000000000000081526004018080602001828103825260158152602001807f4d657373616765206461746120697320656d707479000000000000000000000081525060200191505060405180910390fd5b60011515600260003373ffffffffffffffffffffffffffffffffffffffff1673ffffffffffffffffffffffffffffffffffffffff16815260200190815260200160002060020160009054906101000a900460ff1615151461021f576040517f08c379a00000000000000000000000000000000000000000000000000000000081526004018080602001828103825260158152602001807f43616c6c6572206973206e6f74206169726c696e65000000000000000000000081525060200191505060405180910390fd5b61022933346108f4565b6001600260003373ffffffffffffffffffffffffffffffffffffffff1673ffffffffffffffffffffffffffffffffffffffff16815260200190815260200160002060020160016101000a81548160ff0219169083151502179055503373ffffffffffffffffffffffffffffffffffffffff167fe3e3c2f23f7445131259937f93b9ed0c075fe06c9d702be2d7ac549d0ec5fc32346040518082815260200191505060405180910390a2005b3480156102e057600080fd5b506102e9610993565b6040518082815260200191505060405180910390f35b34801561030b57600080fd5b5061034e6004803603602081101561032257600080fd5b81019080803573ffffffffffffffffffffffffffffffffffffffff16906020019092919050505061099d565b005b34801561035c57600080fd5b5061039f6004803603602081101561037357600080fd5b81019080803573ffffffffffffffffffffffffffffffffffffffff169060200190929190505050610bda565b604051808215151515815260200191505060405180910390f35b3480156103c557600080fd5b506103f4600480360360208110156103dc57600080fd5b81019080803515159060200190929190505050610c3a565b005b34801561040257600080fd5b506104c46004803603608081101561041957600080fd5b81019080803573ffffffffffffffffffffffffffffffffffffffff169060200190929190803573ffffffffffffffffffffffffffffffffffffffff1690602001909291908035906020019064010000000081111561047657600080fd5b82018360208201111561048857600080fd5b803590602001918460018302840111640100000000831117156104aa57600080fd5b909192939192939080359060200190929190505050610d19565b6040518082815260200191505060405180910390f35b61051c600480360360208110156104f057600080fd5b81019080803573ffffffffffffffffffffffffffffffffffffffff169060200190929190505050610e67565b005b34801561052a57600080fd5b506105d66004803603608081101561054157600080fd5b8101908080359060200190929190803573ffffffffffffffffffffffffffffffffffffffff1690602001909291908035906020019064010000000081111561058857600080fd5b82018360208201111561059a57600080fd5b803590602001918460018302840111640100000000831117156105bc57600080fd5b90919293919293908035906020019092919050505061103a565b005b3480156105e457600080fd5b50610627600480360360208110156105fb57600080fd5b81019080803573ffffffffffffffffffffffffffffffffffffffff169060200190929190505050611517565b005b6106ea6004803603608081101561063f57600080fd5b81019080803573ffffffffffffffffffffffffffffffffffffffff169060200190929190803573ffffffffffffffffffffffffffffffffffffffff1690602001909291908035906020019064010000000081111561069c57600080fd5b8201836020820111156106ae57600080fd5b803590602001918460018302840111640100000000831117156106d057600080fd5b909192939192939080359060200190929190505050611633565b005b3480156106f857600080fd5b5061073b6004803603602081101561070f57600080fd5b81019080803573ffffffffffffffffffffffffffffffffffffffff16906020019092919050505061197e565b6040518082815260200191505060405180910390f35b34801561075d57600080fd5b50610766611ae7565b604051808215151515815260200191505060405180910390f35b34801561078c57600080fd5b50610824600480360360408110156107a357600080fd5b81019080803573ffffffffffffffffffffffffffffffffffffffff169060200190929190803590602001906401000000008111156107e057600080fd5b8201836020820111156107f257600080fd5b8035906020019184600183028401116401000000008311171561081457600080fd5b9091929391929390505050611afd565b005b34801561083257600080fd5b506108756004803603602081101561084957600080fd5b81019080803573ffffffffffffffffffffffffffffffffffffffff169060200190929190505050611c6d565b604051808215151515815260200191505060405180910390f35b34801561089b57600080fd5b506108de600480360360208110156108b257600080fd5b81019080803573ffffffffffffffffffffffffffffffffffffffff169060200190929190505050611dea565b6040518082815260200191505060405180910390f35b61094981600260008573ffffffffffffffffffffffffffffffffffffffff1673ffffffffffffffffffffffffffffffffffffffff16815260200190815260200160002060030154611e3390919063ffffffff16565b600260008473ffffffffffffffffffffffffffffffffffffffff1673ffffffffffffffffffffffffffffffffffffffff168152602001908152602001600020600301819055505050565b6000600354905090565b60011515600160003373ffffffffffffffffffffffffffffffffffffffff1673ffffffffffffffffffffffffffffffffffffffff16815260200190815260200160002060009054906101000a900460ff1615151480610a4857506000809054906101000a900473ffffffffffffffffffffffffffffffffffffffff1673ffffffffffffffffffffffffffffffffffffffff163373ffffffffffffffffffffffffffffffffffffffff16145b610aba576040517f08c379a00000000000000000000000000000000000000000000000000000000081526004018080602001828103825260188152602001807f43616c6c6572206973206e6f7420617574686f72697a6564000000000000000081525060200191505060405180910390fd5b6000600660008373ffffffffffffffffffffffffffffffffffffffff1673ffffffffffffffffffffffffffffffffffffffff168152602001908152602001600020549050600660008373ffffffffffffffffffffffffffffffffffffffff1673ffffffffffffffffffffffffffffffffffffffff168152602001908152602001600020600090558173ffffffffffffffffffffffffffffffffffffffff166108fc829081150290604051600060405180830381858888f19350505050158015610b87573d6000803e3d6000fd5b508173ffffffffffffffffffffffffffffffffffffffff167fa976db6a1ab2b2119ca95cf2715193b8b35e6834d94eb5a3647ca8d6d2314b4b826040518082815260200191505060405180910390a25050565b600060011515600260008473ffffffffffffffffffffffffffffffffffffffff1673ffffffffffffffffffffffffffffffffffffffff16815260200190815260200160002060020160009054906101000a900460ff161515149050919050565b6000809054906101000a900473ffffffffffffffffffffffffffffffffffffffff1673ffffffffffffffffffffffffffffffffffffffff163373ffffffffffffffffffffffffffffffffffffffff1614610cfc576040517f08c379a000000000000000000000000000000000000000000000000000000000815260040180806020018281038252601c8152602001807f43616c6c6572206973206e6f7420636f6e7472616374206f776e65720000000081525060200191505060405180910390fd5b80600060146101000a81548160ff02191690831515021790555050565b60008090506000610d6f8686868080601f016020809104026020016040519081016040528093929190818152602001838380828437600081840152601f19601f8201169050808301925050505050505085611ebb565b905060008090505b6004600083815260200190815260200160002080549050811015610e5c578773ffffffffffffffffffffffffffffffffffffffff16600460008481526020019081526020016000208281548110610dca57fe5b906000526020600020906005020160000160009054906101000a900473ffffffffffffffffffffffffffffffffffffffff1673ffffffffffffffffffffffffffffffffffffffff161415610e4f57600460008381526020019081526020016000208181548110610e3657fe5b9060005260206000209060050201600101549250610e5c565b8080600101915050610d77565b505095945050505050565b60011515600160003373ffffffffffffffffffffffffffffffffffffffff1673ffffffffffffffffffffffffffffffffffffffff16815260200190815260200160002060009054906101000a900460ff1615151480610f1257506000809054906101000a900473ffffffffffffffffffffffffffffffffffffffff1673ffffffffffffffffffffffffffffffffffffffff163373ffffffffffffffffffffffffffffffffffffffff16145b610f84576040517f08c379a00000000000000000000000000000000000000000000000000000000081526004018080602001828103825260188152602001807f43616c6c6572206973206e6f7420617574686f72697a6564000000000000000081525060200191505060405180910390fd5b610f8e81346108f4565b6001600260008373ffffffffffffffffffffffffffffffffffffffff1673ffffffffffffffffffffffffffffffffffffffff16815260200190815260200160002060020160016101000a81548160ff0219169083151502179055508073ffffffffffffffffffffffffffffffffffffffff167fe3e3c2f23f7445131259937f93b9ed0c075fe06c9d702be2d7ac549d0ec5fc32346040518082815260200191505060405180910390a250565b60011515600160003373ffffffffffffffffffffffffffffffffffffffff1673ffffffffffffffffffffffffffffffffffffffff16815260200190815260200160002060009054906101000a900460ff16151514806110e557506000809054906101000a900473ffffffffffffffffffffffffffffffffffffffff1673ffffffffffffffffffffffffffffffffffffffff163373ffffffffffffffffffffffffffffffffffffffff16145b611157576040517f08c379a00000000000000000000000000000000000000000000000000000000081526004018080602001828103825260188152602001807f43616c6c6572206973206e6f7420617574686f72697a6564000000000000000081525060200191505060405180910390fd5b60006111a88585858080601f016020809104026020016040519081016040528093929190818152602001838380828437600081840152601f19601f8201169050808301925050505050505084611ebb565b90506005600082815260200190815260200160002060009054906101000a900460ff1615611221576040517f08c379a000000000000000000000000000000000000000000000000000000000815260040180806020018281038252602b8152602001806124c4602b913960400191505060405180910390fd5b60008090505b600460008381526020019081526020016000208054905081101561147f57600060046000848152602001908152602001600020828154811061126557fe5b906000526020600020906005020160000160009054906101000a900473ffffffffffffffffffffffffffffffffffffffff16905060006112f060646112e28b6004600089815260200190815260200160002087815481106112c257fe5b906000526020600020906005020160010154611f7790919063ffffffff16565b611ffd90919063ffffffff16565b905061134481600660008573ffffffffffffffffffffffffffffffffffffffff1673ffffffffffffffffffffffffffffffffffffffff16815260200190815260200160002054611e3390919063ffffffff16565b600660008473ffffffffffffffffffffffffffffffffffffffff1673ffffffffffffffffffffffffffffffffffffffff168152602001908152602001600020819055506113dc81600260008b73ffffffffffffffffffffffffffffffffffffffff1673ffffffffffffffffffffffffffffffffffffffff1681526020019081526020016000206003015461204790919063ffffffff16565b600260008a73ffffffffffffffffffffffffffffffffffffffff1673ffffffffffffffffffffffffffffffffffffffff168152602001908152602001600020600301819055508173ffffffffffffffffffffffffffffffffffffffff167f387e531539117ffbbc64346498e91d0916d1cf52ac62a797e1102d5a400cb632826040518082815260200191505060405180910390a250508080600101915050611227565b5060016005600083815260200190815260200160002060006101000a81548160ff02191690831515021790555081848460405180838380828437808301925050509250505060405180910390208673ffffffffffffffffffffffffffffffffffffffff167f4f0c3ac494566418a881d1dcc860ddf8007bffa4777f2ac212d2711461d5611e60405160405180910390a4505050505050565b6000809054906101000a900473ffffffffffffffffffffffffffffffffffffffff1673ffffffffffffffffffffffffffffffffffffffff163373ffffffffffffffffffffffffffffffffffffffff16146115d9576040517f08c379a000000000000000000000000000000000000000000000000000000000815260040180806020018281038252601c8152602001807f43616c6c6572206973206e6f7420636f6e7472616374206f776e65720000000081525060200191505060405180910390fd5b60018060008373ffffffffffffffffffffffffffffffffffffffff1673ffffffffffffffffffffffffffffffffffffffff16815260200190815260200160002060006101000a81548160ff02191690831515021790555050565b60006116848585858080601f016020809104026020016040519081016040528093929190818152602001838380828437600081840152601f19601f8201169050808301925050505050505084611ebb565b90506116db34600260008873ffffffffffffffffffffffffffffffffffffffff1673ffffffffffffffffffffffffffffffffffffffff16815260200190815260200160002060030154611e3390919063ffffffff16565b600260008773ffffffffffffffffffffffffffffffffffffffff1673ffffffffffffffffffffffffffffffffffffffff16815260200190815260200160002060030181905550600460008281526020019081526020016000206040518060a001604052808873ffffffffffffffffffffffffffffffffffffffff1681526020013481526020018773ffffffffffffffffffffffffffffffffffffffff16815260200186868080601f016020809104026020016040519081016040528093929190818152602001838380828437600081840152601f19601f820116905080830192505050505050508152602001848152509080600181540180825580915050906001820390600052602060002090600502016000909192909190915060008201518160000160006101000a81548173ffffffffffffffffffffffffffffffffffffffff021916908373ffffffffffffffffffffffffffffffffffffffff1602179055506020820151816001015560408201518160020160006101000a81548173ffffffffffffffffffffffffffffffffffffffff021916908373ffffffffffffffffffffffffffffffffffffffff16021790555060608201518160030190805190602001906118aa92919061241e565b50608082015181600401555050508573ffffffffffffffffffffffffffffffffffffffff167ff9bc2f6f210729f3e52d5b6f34da7f12991e929978ea335f9b678ad27caa8b103487878787604051808681526020018573ffffffffffffffffffffffffffffffffffffffff1673ffffffffffffffffffffffffffffffffffffffff168152602001806020018381526020018281038252858582818152602001925080828437600081840152601f19601f820116905080830192505050965050505050505060405180910390a2505050505050565b600060011515600160003373ffffffffffffffffffffffffffffffffffffffff1673ffffffffffffffffffffffffffffffffffffffff16815260200190815260200160002060009054906101000a900460ff1615151480611a2b57506000809054906101000a900473ffffffffffffffffffffffffffffffffffffffff1673ffffffffffffffffffffffffffffffffffffffff163373ffffffffffffffffffffffffffffffffffffffff16145b611a9d576040517f08c379a00000000000000000000000000000000000000000000000000000000081526004018080602001828103825260188152602001807f43616c6c6572206973206e6f7420617574686f72697a6564000000000000000081525060200191505060405180910390fd5b600260008373ffffffffffffffffffffffffffffffffffffffff1673ffffffffffffffffffffffffffffffffffffffff168152602001908152602001600020600301549050919050565b60008060149054906101000a900460ff16905090565b60011515600160003373ffffffffffffffffffffffffffffffffffffffff1673ffffffffffffffffffffffffffffffffffffffff16815260200190815260200160002060009054906101000a900460ff1615151480611ba857506000809054906101000a900473ffffffffffffffffffffffffffffffffffffffff1673ffffffffffffffffffffffffffffffffffffffff163373ffffffffffffffffffffffffffffffffffffffff16145b611c1a576040517f08c379a00000000000000000000000000000000000000000000000000000000081526004018080602001828103825260188152602001807f43616c6c6572206973206e6f7420617574686f72697a6564000000000000000081525060200191505060405180910390fd5b611c688383838080601f016020809104026020016040519081016040528093929190818152602001838380828437600081840152601f19601f82011690508083019250505050505050612091565b505050565b600060011515600160003373ffffffffffffffffffffffffffffffffffffffff1673ffffffffffffffffffffffffffffffffffffffff16815260200190815260200160002060009054906101000a900460ff1615151480611d1a57506000809054906101000a900473ffffffffffffffffffffffffffffffffffffffff1673ffffffffffffffffffffffffffffffffffffffff163373ffffffffffffffffffffffffffffffffffffffff16145b611d8c576040517f08c379a00000000000000000000000000000000000000000000000000000000081526004018080602001828103825260188152602001807f43616c6c6572206973206e6f7420617574686f72697a6564000000000000000081525060200191505060405180910390fd5b60011515600260008473ffffffffffffffffffffffffffffffffffffffff1673ffffffffffffffffffffffffffffffffffffffff16815260200190815260200160002060020160019054906101000a900460ff161515149050919050565b6000600660008373ffffffffffffffffffffffffffffffffffffffff1673ffffffffffffffffffffffffffffffffffffffff168152602001908152602001600020549050919050565b600080828401905083811015611eb1576040517f08c379a000000000000000000000000000000000000000000000000000000000815260040180806020018281038252601b8152602001807f536166654d6174683a206164646974696f6e206f766572666c6f77000000000081525060200191505060405180910390fd5b8091505092915050565b6000838383604051602001808473ffffffffffffffffffffffffffffffffffffffff1673ffffffffffffffffffffffffffffffffffffffff1660601b815260140183805190602001908083835b60208310611f2b5780518252602082019150602081019050602083039250611f08565b6001836020036101000a03801982511681845116808217855250505050505090500182815260200193505050506040516020818303038152906040528051906020012090509392505050565b600080831415611f8a5760009050611ff7565b6000828402905082848281611f9b57fe5b0414611ff2576040517f08c379a00000000000000000000000000000000000000000000000000000000081526004018080602001828103825260218152602001806124ef6021913960400191505060405180910390fd5b809150505b92915050565b600061203f83836040518060400160405280601a81526020017f536166654d6174683a206469766973696f6e206279207a65726f000000000000815250612298565b905092915050565b600061208983836040518060400160405280601e81526020017f536166654d6174683a207375627472616374696f6e206f766572666c6f77000081525061235e565b905092915050565b6120a76001600354611e3390919063ffffffff16565b6003819055506040518060a001604052808373ffffffffffffffffffffffffffffffffffffffff1681526020018281526020016001151581526020016000151581526020016000815250600260008473ffffffffffffffffffffffffffffffffffffffff1673ffffffffffffffffffffffffffffffffffffffff16815260200190815260200160002060008201518160000160006101000a81548173ffffffffffffffffffffffffffffffffffffffff021916908373ffffffffffffffffffffffffffffffffffffffff160217905550602082015181600101908051906020019061219392919061241e565b5060408201518160020160006101000a81548160ff02191690831515021790555060608201518160020160016101000a81548160ff021916908315150217905550608082015181600301559050508173ffffffffffffffffffffffffffffffffffffffff167f472401a2a0d12f4350699788282af698829c7506b130af7979dbf561cecc0605826040518080602001828103825283818151815260200191508051906020019080838360005b8381101561225a57808201518184015260208101905061223f565b50505050905090810190601f1680156122875780820380516001836020036101000a031916815260200191505b509250505060405180910390a25050565b60008083118290612344576040517f08c379a00000000000000000000000000000000000000000000000000000000081526004018080602001828103825283818151815260200191508051906020019080838360005b838110156123095780820151818401526020810190506122ee565b50505050905090810190601f1680156123365780820380516001836020036101000a031916815260200191505b509250505060405180910390fd5b50600083858161235057fe5b049050809150509392505050565b600083831115829061240b576040517f08c379a00000000000000000000000000000000000000000000000000000000081526004018080602001828103825283818151815260200191508051906020019080838360005b838110156123d05780820151818401526020810190506123b5565b50505050905090810190601f1680156123fd5780820380516001836020036101000a031916815260200191505b509250505060405180910390fd5b5060008385039050809150509392505050565b828054600181600116156101000203166002900490600052602060002090601f016020900481019282601f1061245f57805160ff191683800117855561248d565b8280016001018555821561248d579182015b8281111561248c578251825591602001919060010190612471565b5b50905061249a919061249e565b5090565b6124c091905b808211156124bc5760008160009055506001016124a4565b5090565b9056fe496e737572616e6365207061796f7574206861766520616c7265616479206265656e206372656469746564536166654d6174683a206d756c7469706c69636174696f6e206f766572666c6f77a265627a7a7231582005389cd1340b161e527eaf22f866d08e8fab7d5a9d958d2ac8638e614fa0c24264736f6c63430005100032",
  "source": "pragma solidity ^ 0.5 .8;\n\nimport \"../node_modules/openzeppelin-solidity/contracts/math/SafeMath.sol\";\n\ncontract FlightSuretyData {\n    using SafeMath\n    for uint256;\n\n    /********************************************************************************************/\n    /*                                       DATA VARIABLES                                     */\n    /********************************************************************************************/\n\n    address private contractOwner; // Account used to deploy contract\n    bool private operational = true; // Blocks all state changes throughout the contract if false\n    mapping(address => bool) private authorizedCallers; // Addresses that can access this contract\n\n    // data structure to determine an airline\n    struct Airline {\n        address airAccount; // account address of airline\n        string name; // name of airline\n        bool isRegistered; // is this airline registered or not\n        bool isFunded; // is this airline funded or not\n        uint256 fund; // amount of fund available\n    }\n    // mapping to store airlines data\n    mapping(address => Airline) private airlines;\n    // number of airlines available\n    uint256 internal airlinesCount = 0;\n\n    // data structure to determine insurance\n    struct Insurance {\n        address payable insureeAccount; // account address of insuree\n        uint256 amount; // insurance amount\n        address airAccount; // account address of airline\n        string airName; // name of airline\n        uint256 timestamp; // timestamp of airline\n    }\n    // mapping to store insurances data\n    mapping(bytes32 => Insurance[]) private insurances;\n    // mapping to indicate flights whose payout have been credited\n    mapping(bytes32 => bool) private payoutCredited;\n    // mapping to store credits available for each insuree\n    mapping(address => uint256) private creditPayoutsToInsuree;\n\n    /********************************************************************************************/\n    /*                                       EVENT DEFINITIONS                                  */\n    /********************************************************************************************/\n\n    // event to trigger when airline gets registered\n    event AirlineRegistered(\n        address indexed airAccount, // account address of airline\n        string airName // name of airline\n    );\n    // event to trigger when airline gets funded\n    event AirlineFunded(\n        address indexed airAccount, // account address of airline\n        uint256 amount // amount funded to airline\n    );\n    // event to trigger when insurance is purchased\n    event InsurancePurchased(\n        address indexed insureeAccount, // account address of insuree\n        uint256 amount, // insurance amount\n        address airAccount, // account address of airline\n        string airName, // name of airline\n        uint256 timestamp // timestamp of airline\n    );\n    // event to trigger when insurance credit is available\n    event InsuranceCreditAvailable(\n        address indexed airAccount, // account address of airline\n        string indexed airName, // name of airline\n        uint256 indexed timestamp // timestamp of airline\n    );\n    // event to trigger when insurance is credited\n    event InsuranceCredited(\n        address indexed insureeAccount, // account address of insuree\n        uint256 amount // insurance amount\n    );\n    // event to trigger when insurance is paid\n    event InsurancePaid(\n        address indexed insureeAccount, // account address of insuree\n        uint256 amount // insurance amount\n    );\n\n    /**\n     * @dev Constructor\n     *      The deploying account becomes contractOwner\n     */\n    constructor(\n        address _initialairAccount,\n        string memory _initialairName\n    )\n    public {\n        contractOwner = msg.sender;\n        addAirline(_initialairAccount, _initialairName);\n    }\n\n    /********************************************************************************************/\n    /*                                       FUNCTION MODIFIERS                                 */\n    /********************************************************************************************/\n\n    // Modifiers help avoid duplication of code. They are typically used to validate something\n    // before a function is allowed to be executed.\n\n    /**\n     * @dev Modifier that requires the \"operational\" boolean variable to be \"true\"\n     *      This is used on all state changing functions to pause the contract in \n     *      the event there is an issue that needs to be fixed\n     */\n    modifier requireIsOperational() {\n        require(operational, \"Contract is currently not operational\");\n        _; // All modifiers require an \"_\" which indicates where the function body will be added\n    }\n\n    /**\n     * @dev Modifier that requires the caller address either be registered as \"authorized\" or be the owner of the contract.\n     *      This is used to avoid that other accounts may alter this data contract.\n     */\n    modifier requireIsCallerAuthorized() {\n        require(authorizedCallers[msg.sender] == true || msg.sender == contractOwner, \"Caller is not authorized\");\n        _;\n    }\n\n    /**\n     * @dev Modifier that requires the \"ContractOwner\" account to be the function caller\n     */\n    modifier requireContractOwner() {\n        require(msg.sender == contractOwner, \"Caller is not contract owner\");\n        _;\n    }\n\n    /**\n     * @dev Modifier that requires an airline account to be the function caller\n     */\n    modifier requireIsAirline() {\n        require(airlines[msg.sender].isRegistered == true, \"Caller is not airline\");\n        _;\n    }\n\n    /**\n     * @dev Modifier that requires an airline account to be funded\n     */\n    modifier requireFundedAirline(address _airAccount) {\n        require(airlines[_airAccount].isFunded == true, \"Airline is not funded\");\n        _;\n    }\n\n    /**\n     * @dev Modifier that requires message data to be filled\n     */\n    modifier requireMsgData() {\n        require(msg.data.length > 0, \"Message data is empty\");\n        _;\n    }\n\n    /********************************************************************************************/\n    /*                                       UTILITY FUNCTIONS                                  */\n    /********************************************************************************************/\n\n    /**\n     * @dev Add a new address to the list of authorized callers\n     *      Can only be called by the contract owner\n     */\n    function authorizeCaller(address contractAddress) external requireContractOwner {\n        authorizedCallers[contractAddress] = true;\n    }\n\n    /**\n     * @dev Get operating status of contract\n     *\n     * @return A bool that is the current operating status\n     */\n    function isOperational()\n    external\n    view\n    returns(bool) {\n        return operational;\n    }\n\n    /**\n     * @dev Sets contract operations on/off\n     *\n     * When operational mode is disabled, all write transactions except for this one will fail\n     */\n    function setOperatingStatus(\n        bool mode\n    )\n    external\n    requireContractOwner {\n        operational = mode;\n    }\n\n    /********************************************************************************************/\n    /*                                     SMART CONTRACT FUNCTIONS                             */\n    /********************************************************************************************/\n\n    /**\n     * @dev Add an airline to the registration queue\n     *      Can only be called from FlightSuretyApp contract\n     *\n     */\n    function registerAirline(\n        address _airAccount,\n        string calldata _airName\n    )\n    external\n    requireIsCallerAuthorized {\n        addAirline(_airAccount, _airName);\n    }\n\n    function addAirline(\n        address _airAccount,\n        string memory _airName\n    )\n    private {\n        airlinesCount = airlinesCount.add(1);\n        airlines[_airAccount] = Airline(\n            _airAccount,\n            _airName,\n            true,\n            false,\n            0\n        );\n        emit AirlineRegistered(_airAccount, _airName);\n    }\n\n    /**\n     * @dev Buy insurance for a flight\n     *\n     */\n    function buy(\n        address payable _insureeAccount,\n        address _airAccount,\n        string calldata _airName,\n        uint256 _timestamp\n    )\n    external\n    payable {\n        bytes32 flightKey = getFlightKey(_airAccount, _airName, _timestamp);\n        airlines[_airAccount].fund = airlines[_airAccount].fund.add(msg.value);\n        insurances[flightKey].push(\n            Insurance(\n                _insureeAccount,\n                msg.value,\n                _airAccount,\n                _airName,\n                _timestamp\n            )\n        );\n        emit InsurancePurchased(\n            _insureeAccount,\n            msg.value,\n            _airAccount,\n            _airName,\n            _timestamp\n        );\n    }\n\n    /**\n     *  @dev Credits payouts to insurees\n     */\n    function creditInsurees(\n        uint256 _creditPercentage,\n        address _airAccount,\n        string calldata _airName,\n        uint256 _timestamp\n    ) external\n    requireIsCallerAuthorized {\n        bytes32 flightKey = getFlightKey(_airAccount, _airName, _timestamp);\n        require(!payoutCredited[flightKey], \"Insurance payout have already been credited\");\n        for (uint i = 0; i < insurances[flightKey].length; i++) {\n            address insureeAccount = insurances[flightKey][i].insureeAccount;\n            uint256 amountToReceive = insurances[flightKey][i].amount.mul(_creditPercentage).div(100);\n            creditPayoutsToInsuree[insureeAccount] = creditPayoutsToInsuree[insureeAccount].add(amountToReceive);\n            airlines[_airAccount].fund = airlines[_airAccount].fund.sub(amountToReceive);\n            emit InsuranceCredited(insureeAccount, amountToReceive);\n        }\n        payoutCredited[flightKey] = true;\n        emit InsuranceCreditAvailable(_airAccount, _airName, _timestamp);\n    }\n\n    /**\n     *  @dev Transfers eligible payout funds to insuree\n     *\n     */\n    function pay(\n        address payable _insureeAccount\n    )\n    external\n    requireIsCallerAuthorized {\n        uint256 payableAmount = creditPayoutsToInsuree[_insureeAccount];\n        delete(creditPayoutsToInsuree[_insureeAccount]);\n        _insureeAccount.transfer(payableAmount);\n        emit InsurancePaid(_insureeAccount, payableAmount);\n    }\n\n    /**\n     * @dev Initial funding for the insurance. Unless there are too many delayed flights\n     *      resulting in insurance payouts, the contract should be self-sustaining\n     *\n     */\n    function fund(\n        address _airAccount\n    )\n    external\n    payable\n    requireIsCallerAuthorized {\n        addFund(_airAccount, msg.value);\n        airlines[_airAccount].isFunded = true;\n        emit AirlineFunded(_airAccount, msg.value);\n    }\n\n    function addFund(\n        address _airAccount,\n        uint256 _fundValue\n    )\n    private {\n        airlines[_airAccount].fund = airlines[_airAccount].fund.add(_fundValue);\n    }\n\n    function getFlightKey(\n        address airline,\n        string memory flight,\n        uint256 timestamp\n    )\n    pure\n    internal\n    returns(bytes32) {\n        return keccak256(abi.encodePacked(airline, flight, timestamp));\n    }\n\n    /**\n     *  @dev check if address is of airline or not\n     *\n     */\n    function isAirline(\n        address _airAccount\n    )\n    external\n    view\n    returns(bool) {\n        return airlines[_airAccount].isRegistered == true;\n    }\n\n    /**\n     *  @dev check if address is of airline or not\n     *\n     */\n    function isAirlineFunded(\n        address _airAccount\n    )\n    external\n    view\n    requireIsCallerAuthorized\n    returns(bool) {\n        return airlines[_airAccount].isFunded == true;\n    }\n\n    /**\n     * @dev get fund of airline\n     */\n    function getFund(\n        address _airAccount\n    ) external\n    view\n    requireIsCallerAuthorized\n    returns(uint256) {\n        return airlines[_airAccount].fund;\n    }\n\n    /**\n     *  @dev check if address is of airline or not\n     *\n     */\n    function getAirlinesCount()\n    external\n    view\n    returns(uint256) {\n        return airlinesCount;\n    }\n\n    /**\n     *  @dev get amount paid by insuree\n     *\n     */\n    function getAmountPaidByInsuree(\n        address payable _insureeAccount,\n        address _airAccount,\n        string calldata _airName,\n        uint256 _timestamp\n    ) external\n    view\n    returns(uint256 amountPaid) {\n        amountPaid = 0;\n        bytes32 flightKey = getFlightKey(_airAccount, _airName, _timestamp);\n        for (uint i = 0; i < insurances[flightKey].length; i++) {\n            if (insurances[flightKey][i].insureeAccount == _insureeAccount) {\n                amountPaid = insurances[flightKey][i].amount;\n                break;\n            }\n        }\n    }\n\n    /**\n     *  @dev Returns insurees credits\n     *\n     */\n    function getInsureePayoutCredits(\n        address payable _insureeAccount\n    ) external\n    view\n    returns(uint256 amount) {\n        return creditPayoutsToInsuree[_insureeAccount];\n    }\n\n    /**\n     * @dev Fallback function for funding smart contract.\n     *\n     */\n    function ()\n    external\n    payable\n    requireMsgData\n    requireIsAirline {\n        addFund(msg.sender, msg.value);\n        airlines[msg.sender].isFunded = true;\n        emit AirlineFunded(msg.sender, msg.value);\n    }\n\n}",
  "sourcePath": "/Users/nitya/projects/Udacity/blockchain developer/udacity-nanodegree/FlightSurety/contracts/FlightSuretyData.sol",
  "compiler": {
    "name": "solc",
    "version": "0.5.16+commit.9c3226ce.Emscripten.clang"
  },
  "schemaVersion": "3.2.0",
  "updatedAt": "2020-06-20T19:12:38.550Z",
  "networkType": "ethereum",
  "devdoc": {
    "methods": {
      "authorizeCaller(address)": {
        "details": "Add a new address to the list of authorized callers     Can only be called by the contract owner"
      },
      "buy(address,address,string,uint256)": {
        "details": "Buy insurance for a flight     "
      },
      "constructor": {
        "details": "Constructor     The deploying account becomes contractOwner"
      },
      "creditInsurees(uint256,address,string,uint256)": {
        "details": "Credits payouts to insurees"
      },
      "fund(address)": {
        "details": "Initial funding for the insurance. Unless there are too many delayed flights     resulting in insurance payouts, the contract should be self-sustaining     "
      },
      "getAirlinesCount()": {
        "details": "check if address is of airline or not     "
      },
      "getAmountPaidByInsuree(address,address,string,uint256)": {
        "details": "get amount paid by insuree     "
      },
      "getFund(address)": {
        "details": "get fund of airline"
      },
      "getInsureePayoutCredits(address)": {
        "details": "Returns insurees credits     "
      },
      "isAirline(address)": {
        "details": "check if address is of airline or not     "
      },
      "isAirlineFunded(address)": {
        "details": "check if address is of airline or not     "
      },
      "isOperational()": {
        "details": "Get operating status of contract",
        "return": "A bool that is the current operating status"
      },
      "pay(address)": {
        "details": "Transfers eligible payout funds to insuree     "
      },
      "registerAirline(address,string)": {
        "details": "Add an airline to the registration queue     Can only be called from FlightSuretyApp contract     "
      },
      "setOperatingStatus(bool)": {
        "details": "Sets contract operations on/off     * When operational mode is disabled, all write transactions except for this one will fail"
      }
    }
  },
  "userdoc": {
    "methods": {}
  }
}