{
  "contractName": "FlightSuretyApp",
  "abi": [
    {
      "inputs": [
        {
          "internalType": "address payable",
          "name": "dataContract",
          "type": "address"
        }
      ],
      "payable": false,
      "stateMutability": "nonpayable",
      "type": "constructor"
    },
    {
      "anonymous": false,
      "inputs": [
        {
          "indexed": false,
          "internalType": "address",
          "name": "airAcccount",
          "type": "address"
        },
        {
          "indexed": false,
          "internalType": "string",
          "name": "airName",
          "type": "string"
        },
        {
          "indexed": false,
          "internalType": "uint256",
          "name": "timestamp",
          "type": "uint256"
        }
      ],
      "name": "FlightRegistered",
      "type": "event"
    },
    {
      "anonymous": false,
      "inputs": [
        {
          "indexed": false,
          "internalType": "bool",
          "name": "success",
          "type": "bool"
        },
        {
          "indexed": false,
          "internalType": "uint256",
          "name": "votes",
          "type": "uint256"
        }
      ],
      "name": "FlightRegisteredDApp",
      "type": "event"
    },
    {
      "anonymous": false,
      "inputs": [
        {
          "indexed": false,
          "internalType": "address",
          "name": "airline",
          "type": "address"
        },
        {
          "indexed": false,
          "internalType": "string",
          "name": "flight",
          "type": "string"
        },
        {
          "indexed": false,
          "internalType": "uint256",
          "name": "timestamp",
          "type": "uint256"
        },
        {
          "indexed": false,
          "internalType": "uint8",
          "name": "status",
          "type": "uint8"
        }
      ],
      "name": "FlightStatusInfo",
      "type": "event"
    },
    {
      "anonymous": false,
      "inputs": [
        {
          "indexed": false,
          "internalType": "address",
          "name": "airline",
          "type": "address"
        },
        {
          "indexed": false,
          "internalType": "string",
          "name": "flight",
          "type": "string"
        },
        {
          "indexed": false,
          "internalType": "uint256",
          "name": "timestamp",
          "type": "uint256"
        },
        {
          "indexed": false,
          "internalType": "uint8",
          "name": "status",
          "type": "uint8"
        }
      ],
      "name": "OracleReport",
      "type": "event"
    },
    {
      "anonymous": false,
      "inputs": [
        {
          "indexed": false,
          "internalType": "uint8",
          "name": "index",
          "type": "uint8"
        },
        {
          "indexed": false,
          "internalType": "address",
          "name": "airline",
          "type": "address"
        },
        {
          "indexed": false,
          "internalType": "string",
          "name": "flight",
          "type": "string"
        },
        {
          "indexed": false,
          "internalType": "uint256",
          "name": "timestamp",
          "type": "uint256"
        }
      ],
      "name": "OracleRequest",
      "type": "event"
    },
    {
      "constant": true,
      "inputs": [],
      "name": "INSURANCE_RETURN_PERCENTAGE",
      "outputs": [
        {
          "internalType": "uint256",
          "name": "",
          "type": "uint256"
        }
      ],
      "payable": false,
      "stateMutability": "view",
      "type": "function"
    },
    {
      "constant": true,
      "inputs": [],
      "name": "MAX_INSURANCE_COST",
      "outputs": [
        {
          "internalType": "uint256",
          "name": "",
          "type": "uint256"
        }
      ],
      "payable": false,
      "stateMutability": "view",
      "type": "function"
    },
    {
      "constant": true,
      "inputs": [],
      "name": "MINIMUM_FUND",
      "outputs": [
        {
          "internalType": "uint256",
          "name": "",
          "type": "uint256"
        }
      ],
      "payable": false,
      "stateMutability": "view",
      "type": "function"
    },
    {
      "constant": true,
      "inputs": [],
      "name": "REGISTRATION_FEE",
      "outputs": [
        {
          "internalType": "uint256",
          "name": "",
          "type": "uint256"
        }
      ],
      "payable": false,
      "stateMutability": "view",
      "type": "function"
    },
    {
      "constant": true,
      "inputs": [],
      "name": "isOperational",
      "outputs": [
        {
          "internalType": "bool",
          "name": "",
          "type": "bool"
        }
      ],
      "payable": false,
      "stateMutability": "view",
      "type": "function"
    },
    {
      "constant": true,
      "inputs": [
        {
          "internalType": "address",
          "name": "_airAcccount",
          "type": "address"
        }
      ],
      "name": "isAirline",
      "outputs": [
        {
          "internalType": "bool",
          "name": "",
          "type": "bool"
        }
      ],
      "payable": false,
      "stateMutability": "view",
      "type": "function"
    },
    {
      "constant": false,
      "inputs": [],
      "name": "fund",
      "outputs": [],
      "payable": true,
      "stateMutability": "payable",
      "type": "function"
    },
    {
      "constant": false,
      "inputs": [
        {
          "internalType": "address",
          "name": "_airAcccount",
          "type": "address"
        },
        {
          "internalType": "string",
          "name": "_airName",
          "type": "string"
        }
      ],
      "name": "registerAirline",
      "outputs": [
        {
          "internalType": "bool",
          "name": "success",
          "type": "bool"
        },
        {
          "internalType": "uint256",
          "name": "votes",
          "type": "uint256"
        }
      ],
      "payable": false,
      "stateMutability": "nonpayable",
      "type": "function"
    },
    {
      "constant": false,
      "inputs": [
        {
          "internalType": "string",
          "name": "_airName",
          "type": "string"
        },
        {
          "internalType": "uint256",
          "name": "_timestamp",
          "type": "uint256"
        }
      ],
      "name": "registerFlight",
      "outputs": [],
      "payable": false,
      "stateMutability": "nonpayable",
      "type": "function"
    },
    {
      "constant": false,
      "inputs": [
        {
          "internalType": "address",
          "name": "_airAcccount",
          "type": "address"
        },
        {
          "internalType": "string",
          "name": "_airName",
          "type": "string"
        },
        {
          "internalType": "uint256",
          "name": "_timestamp",
          "type": "uint256"
        }
      ],
      "name": "fetchFlightStatus",
      "outputs": [],
      "payable": false,
      "stateMutability": "nonpayable",
      "type": "function"
    },
    {
      "constant": false,
      "inputs": [
        {
          "internalType": "address",
          "name": "_airAcccount",
          "type": "address"
        },
        {
          "internalType": "string",
          "name": "_airName",
          "type": "string"
        },
        {
          "internalType": "uint256",
          "name": "_timestamp",
          "type": "uint256"
        }
      ],
      "name": "buyInsurance",
      "outputs": [],
      "payable": true,
      "stateMutability": "payable",
      "type": "function"
    },
    {
      "constant": true,
      "inputs": [
        {
          "internalType": "address",
          "name": "_airAcccount",
          "type": "address"
        },
        {
          "internalType": "string",
          "name": "_airName",
          "type": "string"
        },
        {
          "internalType": "uint256",
          "name": "_timestamp",
          "type": "uint256"
        }
      ],
      "name": "getAmountPaidByInsuree",
      "outputs": [
        {
          "internalType": "uint256",
          "name": "",
          "type": "uint256"
        }
      ],
      "payable": false,
      "stateMutability": "view",
      "type": "function"
    },
    {
      "constant": false,
      "inputs": [
        {
          "internalType": "address",
          "name": "_airAcccount",
          "type": "address"
        },
        {
          "internalType": "string",
          "name": "_airName",
          "type": "string"
        },
        {
          "internalType": "uint256",
          "name": "_timestamp",
          "type": "uint256"
        }
      ],
      "name": "claimCredit",
      "outputs": [],
      "payable": false,
      "stateMutability": "nonpayable",
      "type": "function"
    },
    {
      "constant": false,
      "inputs": [],
      "name": "withdrawCredits",
      "outputs": [],
      "payable": false,
      "stateMutability": "nonpayable",
      "type": "function"
    },
    {
      "constant": false,
      "inputs": [],
      "name": "registerOracle",
      "outputs": [],
      "payable": true,
      "stateMutability": "payable",
      "type": "function"
    },
    {
      "constant": true,
      "inputs": [],
      "name": "getMyIndexes",
      "outputs": [
        {
          "internalType": "uint8[3]",
          "name": "",
          "type": "uint8[3]"
        }
      ],
      "payable": false,
      "stateMutability": "view",
      "type": "function"
    },
    {
      "constant": false,
      "inputs": [
        {
          "internalType": "uint8",
          "name": "index",
          "type": "uint8"
        },
        {
          "internalType": "address",
          "name": "airline",
          "type": "address"
        },
        {
          "internalType": "string",
          "name": "flight",
          "type": "string"
        },
        {
          "internalType": "uint256",
          "name": "timestamp",
          "type": "uint256"
        },
        {
          "internalType": "uint8",
          "name": "statusCode",
          "type": "uint8"
        }
      ],
      "name": "submitOracleResponse",
      "outputs": [],
      "payable": false,
      "stateMutability": "nonpayable",
      "type": "function"
    }
  ],
  "bytecode": "0x60806040526000600560006101000a81548160ff021916908360ff16021790555034801561002c57600080fd5b50604051613b09380380613b098339818101604052602081101561004f57600080fd5b8101908080519060200190929190505050336000806101000a81548173ffffffffffffffffffffffffffffffffffffffff021916908373ffffffffffffffffffffffffffffffffffffffff16021790555080600260006101000a81548173ffffffffffffffffffffffffffffffffffffffff021916908373ffffffffffffffffffffffffffffffffffffffff16021790555050613a18806100f16000396000f3fe6080604052600436106100fe5760003560e01c806367ee25ea11610095578063c10f270011610064578063c10f270014610512578063cd905dff146105dc578063ee38a7491461060b578063f83f11c0146106d0578063fe63e66d14610780576100fe565b806367ee25ea14610402578063717f6dfb1461042d578063ab2bd10b14610444578063b60d428814610508576100fe565b806348bfb69d116100d157806348bfb69d146102a95780635deb0172146103595780635f1cc0e61461038457806364b4f751146103d7576100fe565b80630e248a11146101035780632f6721d01461016c578063339d25901461020f57806339cfc99514610219575b600080fd5b34801561010f57600080fd5b506101526004803603602081101561012657600080fd5b81019080803573ffffffffffffffffffffffffffffffffffffffff1690602001909291905050506107ab565b604051808215151515815260200191505060405180910390f35b61020d6004803603606081101561018257600080fd5b81019080803573ffffffffffffffffffffffffffffffffffffffff169060200190929190803590602001906401000000008111156101bf57600080fd5b8201836020820111156101d157600080fd5b803590602001918460018302840111640100000000831117156101f357600080fd5b90919293919293908035906020019092919050505061088e565b005b610217610cdc565b005b34801561022557600080fd5b506102a76004803603604081101561023c57600080fd5b810190808035906020019064010000000081111561025957600080fd5b82018360208201111561026b57600080fd5b8035906020019184600183028401116401000000008311171561028d57600080fd5b909192939192939080359060200190929190505050610e02565b005b3480156102b557600080fd5b50610357600480360360608110156102cc57600080fd5b81019080803573ffffffffffffffffffffffffffffffffffffffff1690602001909291908035906020019064010000000081111561030957600080fd5b82018360208201111561031b57600080fd5b8035906020019184600183028401116401000000008311171561033d57600080fd5b9091929391929390803590602001909291905050506113e7565b005b34801561036557600080fd5b5061036e611761565b6040518082815260200191505060405180910390f35b34801561039057600080fd5b5061039961176d565b6040518082600360200280838360005b838110156103c45780820151818401526020810190506103a9565b5050505090500191505060405180910390f35b3480156103e357600080fd5b506103ec6118e0565b6040518082815260200191505060405180910390f35b34801561040e57600080fd5b506104176118ec565b6040518082815260200191505060405180910390f35b34801561043957600080fd5b506104426118f8565b005b34801561045057600080fd5b506104f26004803603606081101561046757600080fd5b81019080803573ffffffffffffffffffffffffffffffffffffffff169060200190929190803590602001906401000000008111156104a457600080fd5b8201836020820111156104b657600080fd5b803590602001918460018302840111640100000000831117156104d857600080fd5b909192939192939080359060200190929190505050611bfa565b6040518082815260200191505060405180910390f35b610510611e40565b005b34801561051e57600080fd5b506105da600480360360a081101561053557600080fd5b81019080803560ff169060200190929190803573ffffffffffffffffffffffffffffffffffffffff1690602001909291908035906020019064010000000081111561057f57600080fd5b82018360208201111561059157600080fd5b803590602001918460018302840111640100000000831117156105b357600080fd5b909192939192939080359060200190929190803560ff169060200190929190505050612140565b005b3480156105e857600080fd5b506105f1612661565b604051808215151515815260200191505060405180910390f35b34801561061757600080fd5b506106af6004803603604081101561062e57600080fd5b81019080803573ffffffffffffffffffffffffffffffffffffffff1690602001909291908035906020019064010000000081111561066b57600080fd5b82018360208201111561067d57600080fd5b8035906020019184600183028401116401000000008311171561069f57600080fd5b909192939192939050505061270b565b60405180831515151581526020018281526020019250505060405180910390f35b3480156106dc57600080fd5b5061077e600480360360608110156106f357600080fd5b81019080803573ffffffffffffffffffffffffffffffffffffffff1690602001909291908035906020019064010000000081111561073057600080fd5b82018360208201111561074257600080fd5b8035906020019184600183028401116401000000008311171561076457600080fd5b909192939192939080359060200190929190505050612e99565b005b34801561078c57600080fd5b5061079561308a565b6040518082815260200191505060405180910390f35b6000600260009054906101000a900473ffffffffffffffffffffffffffffffffffffffff1673ffffffffffffffffffffffffffffffffffffffff16630e248a11836040518263ffffffff1660e01b8152600401808273ffffffffffffffffffffffffffffffffffffffff1673ffffffffffffffffffffffffffffffffffffffff16815260200191505060206040518083038186803b15801561084c57600080fd5b505afa158015610860573d6000803e3d6000fd5b505050506040513d602081101561087657600080fd5b81019080805190602001909291905050509050919050565b600260009054906101000a900473ffffffffffffffffffffffffffffffffffffffff1673ffffffffffffffffffffffffffffffffffffffff1663cd905dff6040518163ffffffff1660e01b815260040160206040518083038186803b1580156108f657600080fd5b505afa15801561090a573d6000803e3d6000fd5b505050506040513d602081101561092057600080fd5b8101908080519060200190929190505050610986576040517f08c379a00000000000000000000000000000000000000000000000000000000081526004018080602001828103825260258152602001806139706025913960400191505060405180910390fd5b61098f336107ab565b15610a02576040517f08c379a00000000000000000000000000000000000000000000000000000000081526004018080602001828103825260188152602001807f43616c6c6572206973206169726c696e6520697473656c66000000000000000081525060200191505060405180910390fd5b804210610a5a576040517f08c379a00000000000000000000000000000000000000000000000000000000081526004018080602001828103825260288152602001806139276028913960400191505060405180910390fd5b670de0b6b3a7640000341115610abb576040517f08c379a000000000000000000000000000000000000000000000000000000000815260040180806020018281038252602c8152602001806139b8602c913960400191505060405180910390fd5b6000610b0c8585858080601f016020809104026020016040519081016040528093929190818152602001838380828437600081840152601f19601f820116905080830192505050505050508461308f565b9050600115156001600083815260200190815260200160002060000160009054906101000a900460ff16151514610bab576040517f08c379a00000000000000000000000000000000000000000000000000000000081526004018080602001828103825260198152602001807f4169726c696e65206973206e6f7420726567697374657265640000000000000081525060200191505060405180910390fd5b600260009054906101000a900473ffffffffffffffffffffffffffffffffffffffff1673ffffffffffffffffffffffffffffffffffffffff1663351831703433888888886040518763ffffffff1660e01b8152600401808673ffffffffffffffffffffffffffffffffffffffff1673ffffffffffffffffffffffffffffffffffffffff1681526020018573ffffffffffffffffffffffffffffffffffffffff1673ffffffffffffffffffffffffffffffffffffffff168152602001806020018381526020018281038252858582818152602001925080828437600081840152601f19601f82011690508083019250505096505050505050506000604051808303818588803b158015610cbc57600080fd5b505af1158015610cd0573d6000803e3d6000fd5b50505050505050505050565b670de0b6b3a7640000341015610d5a576040517f08c379a000000000000000000000000000000000000000000000000000000000815260040180806020018281038252601c8152602001807f526567697374726174696f6e206665652069732072657175697265640000000081525060200191505060405180910390fd5b610d6261380b565b610d6b3361314b565b9050604051806040016040528060011515815260200182815250600660003373ffffffffffffffffffffffffffffffffffffffff1673ffffffffffffffffffffffffffffffffffffffff16815260200190815260200160002060008201518160000160006101000a81548160ff021916908315150217905550602082015181600101906003610dfb92919061382d565b5090505050565b600260009054906101000a900473ffffffffffffffffffffffffffffffffffffffff1673ffffffffffffffffffffffffffffffffffffffff1663cd905dff6040518163ffffffff1660e01b815260040160206040518083038186803b158015610e6a57600080fd5b505afa158015610e7e573d6000803e3d6000fd5b505050506040513d6020811015610e9457600080fd5b8101908080519060200190929190505050610efa576040517f08c379a00000000000000000000000000000000000000000000000000000000081526004018080602001828103825260258152602001806139706025913960400191505060405180910390fd5b600260009054906101000a900473ffffffffffffffffffffffffffffffffffffffff1673ffffffffffffffffffffffffffffffffffffffff16630e248a11336040518263ffffffff1660e01b8152600401808273ffffffffffffffffffffffffffffffffffffffff1673ffffffffffffffffffffffffffffffffffffffff16815260200191505060206040518083038186803b158015610f9957600080fd5b505afa158015610fad573d6000803e3d6000fd5b505050506040513d6020811015610fc357600080fd5b8101908080519060200190929190505050611046576040517f08c379a00000000000000000000000000000000000000000000000000000000081526004018080602001828103825260208152602001807f43616c6c6572206973206e6f742072656769737465726564206169726c696e6581525060200191505060405180910390fd5b600260009054906101000a900473ffffffffffffffffffffffffffffffffffffffff1673ffffffffffffffffffffffffffffffffffffffff1663f53b6d65336040518263ffffffff1660e01b8152600401808273ffffffffffffffffffffffffffffffffffffffff1673ffffffffffffffffffffffffffffffffffffffff16815260200191505060206040518083038186803b1580156110e557600080fd5b505afa1580156110f9573d6000803e3d6000fd5b505050506040513d602081101561110f57600080fd5b8101908080519060200190929190505050611192576040517f08c379a000000000000000000000000000000000000000000000000000000000815260040180806020018281038252601c8152602001807f43616c6c6572206169726c696e65206973206e6f742066756e6465640000000081525060200191505060405180910390fd5b80428111611208576040517f08c379a00000000000000000000000000000000000000000000000000000000081526004018080602001828103825260178152602001807f466c69676874206973206e6f7420696e2066757475726500000000000000000081525060200191505060405180910390fd5b60006112593386868080601f016020809104026020016040519081016040528093929190818152602001838380828437600081840152601f19601f820116905080830192505050505050508561308f565b90506040518060800160405280600115158152602001600060ff1681526020014281526020013373ffffffffffffffffffffffffffffffffffffffff168152506001600083815260200190815260200160002060008201518160000160006101000a81548160ff02191690831515021790555060208201518160000160016101000a81548160ff021916908360ff1602179055506040820151816001015560608201518160020160006101000a81548173ffffffffffffffffffffffffffffffffffffffff021916908373ffffffffffffffffffffffffffffffffffffffff1602179055509050507f34151dfe5f5d2e1a6ed2a8b951d1f9935b00b4711e31a6c7972eaee3b81c1f0233868686604051808573ffffffffffffffffffffffffffffffffffffffff1673ffffffffffffffffffffffffffffffffffffffff168152602001806020018381526020018281038252858582818152602001925080828437600081840152601f19601f8201169050808301925050509550505050505060405180910390a15050505050565b600260009054906101000a900473ffffffffffffffffffffffffffffffffffffffff1673ffffffffffffffffffffffffffffffffffffffff1663cd905dff6040518163ffffffff1660e01b815260040160206040518083038186803b15801561144f57600080fd5b505afa158015611463573d6000803e3d6000fd5b505050506040513d602081101561147957600080fd5b81019080805190602001909291905050506114df576040517f08c379a00000000000000000000000000000000000000000000000000000000081526004018080602001828103825260258152602001806139706025913960400191505060405180910390fd5b60006115308585858080601f016020809104026020016040519081016040528093929190818152602001838380828437600081840152601f19601f820116905080830192505050505050508461308f565b9050601460ff166001600083815260200190815260200160002060000160019054906101000a900460ff1660ff16146115d1576040517f08c379a00000000000000000000000000000000000000000000000000000000081526004018080602001828103825260198152602001807f466c6967687420737461747573206973206e6f74206c6174650000000000000081525060200191505060405180910390fd5b6001600082815260200190815260200160002060010154421161165c576040517f08c379a00000000000000000000000000000000000000000000000000000000081526004018080602001828103825260158152602001807f436c61696d206e6f7420616c6c6f77656420796574000000000000000000000081525060200191505060405180910390fd5b600260009054906101000a900473ffffffffffffffffffffffffffffffffffffffff1673ffffffffffffffffffffffffffffffffffffffff16632adf4c5b6096878787876040518663ffffffff1660e01b8152600401808681526020018573ffffffffffffffffffffffffffffffffffffffff1673ffffffffffffffffffffffffffffffffffffffff168152602001806020018381526020018281038252858582818152602001925080828437600081840152601f19601f8201169050808301925050509650505050505050600060405180830381600087803b15801561174257600080fd5b505af1158015611756573d6000803e3d6000fd5b505050505050505050565b678ac7230489e8000081565b61177561380b565b600660003373ffffffffffffffffffffffffffffffffffffffff1673ffffffffffffffffffffffffffffffffffffffff16815260200190815260200160002060000160009054906101000a900460ff16611837576040517f08c379a000000000000000000000000000000000000000000000000000000000815260040180806020018281038252601b8152602001807f4e6f74207265676973746572656420617320616e206f7261636c65000000000081525060200191505060405180910390fd5b600660003373ffffffffffffffffffffffffffffffffffffffff1673ffffffffffffffffffffffffffffffffffffffff1681526020019081526020016000206001016003806020026040519081016040528092919082600380156118d6576020028201916000905b82829054906101000a900460ff1660ff168152602001906001019060208260000104928301926001038202915080841161189f5790505b5050505050905090565b670de0b6b3a764000081565b670de0b6b3a764000081565b600260009054906101000a900473ffffffffffffffffffffffffffffffffffffffff1673ffffffffffffffffffffffffffffffffffffffff1663cd905dff6040518163ffffffff1660e01b815260040160206040518083038186803b15801561196057600080fd5b505afa158015611974573d6000803e3d6000fd5b505050506040513d602081101561198a57600080fd5b81019080805190602001909291905050506119f0576040517f08c379a00000000000000000000000000000000000000000000000000000000081526004018080602001828103825260258152602001806139706025913960400191505060405180910390fd5b6000600260009054906101000a900473ffffffffffffffffffffffffffffffffffffffff1673ffffffffffffffffffffffffffffffffffffffff1663f71882b9336040518263ffffffff1660e01b8152600401808273ffffffffffffffffffffffffffffffffffffffff1673ffffffffffffffffffffffffffffffffffffffff16815260200191505060206040518083038186803b158015611a9157600080fd5b505afa158015611aa5573d6000803e3d6000fd5b505050506040513d6020811015611abb57600080fd5b810190808051906020019092919050505011611b3f576040517f08c379a00000000000000000000000000000000000000000000000000000000081526004018080602001828103825260148152602001807f4e6f206372656469747320617661696c61626c6500000000000000000000000081525060200191505060405180910390fd5b600260009054906101000a900473ffffffffffffffffffffffffffffffffffffffff1673ffffffffffffffffffffffffffffffffffffffff16630c11dedd336040518263ffffffff1660e01b8152600401808273ffffffffffffffffffffffffffffffffffffffff1673ffffffffffffffffffffffffffffffffffffffff168152602001915050600060405180830381600087803b158015611be057600080fd5b505af1158015611bf4573d6000803e3d6000fd5b50505050565b600080611c4c8686868080601f016020809104026020016040519081016040528093929190818152602001838380828437600081840152601f19601f820116905080830192505050505050508561308f565b9050600115156001600083815260200190815260200160002060000160009054906101000a900460ff16151514611ceb576040517f08c379a00000000000000000000000000000000000000000000000000000000081526004018080602001828103825260158152602001807f466c69676874206e6f742072656769737465726564000000000000000000000081525060200191505060405180910390fd5b600260009054906101000a900473ffffffffffffffffffffffffffffffffffffffff1673ffffffffffffffffffffffffffffffffffffffff16631f428b4b33888888886040518663ffffffff1660e01b8152600401808673ffffffffffffffffffffffffffffffffffffffff1673ffffffffffffffffffffffffffffffffffffffff1681526020018573ffffffffffffffffffffffffffffffffffffffff1673ffffffffffffffffffffffffffffffffffffffff168152602001806020018381526020018281038252858582818152602001925080828437600081840152601f19601f820116905080830192505050965050505050505060206040518083038186803b158015611dfa57600080fd5b505afa158015611e0e573d6000803e3d6000fd5b505050506040513d6020811015611e2457600080fd5b8101908080519060200190929190505050915050949350505050565b600260009054906101000a900473ffffffffffffffffffffffffffffffffffffffff1673ffffffffffffffffffffffffffffffffffffffff1663cd905dff6040518163ffffffff1660e01b815260040160206040518083038186803b158015611ea857600080fd5b505afa158015611ebc573d6000803e3d6000fd5b505050506040513d6020811015611ed257600080fd5b8101908080519060200190929190505050611f38576040517f08c379a00000000000000000000000000000000000000000000000000000000081526004018080602001828103825260258152602001806139706025913960400191505060405180910390fd5b600260009054906101000a900473ffffffffffffffffffffffffffffffffffffffff1673ffffffffffffffffffffffffffffffffffffffff16630e248a11336040518263ffffffff1660e01b8152600401808273ffffffffffffffffffffffffffffffffffffffff1673ffffffffffffffffffffffffffffffffffffffff16815260200191505060206040518083038186803b158015611fd757600080fd5b505afa158015611feb573d6000803e3d6000fd5b505050506040513d602081101561200157600080fd5b8101908080519060200190929190505050612084576040517f08c379a00000000000000000000000000000000000000000000000000000000081526004018080602001828103825260208152602001807f43616c6c6572206973206e6f742072656769737465726564206169726c696e6581525060200191505060405180910390fd5b600260009054906101000a900473ffffffffffffffffffffffffffffffffffffffff1673ffffffffffffffffffffffffffffffffffffffff16632302440834336040518363ffffffff1660e01b8152600401808273ffffffffffffffffffffffffffffffffffffffff1673ffffffffffffffffffffffffffffffffffffffff1681526020019150506000604051808303818588803b15801561212557600080fd5b505af1158015612139573d6000803e3d6000fd5b5050505050565b8560ff16600660003373ffffffffffffffffffffffffffffffffffffffff1673ffffffffffffffffffffffffffffffffffffffff16815260200190815260200160002060010160006003811061219257fe5b602091828204019190069054906101000a900460ff1660ff16148061221f57508560ff16600660003373ffffffffffffffffffffffffffffffffffffffff1673ffffffffffffffffffffffffffffffffffffffff16815260200190815260200160002060010160016003811061220457fe5b602091828204019190069054906101000a900460ff1660ff16145b8061229257508560ff16600660003373ffffffffffffffffffffffffffffffffffffffff1673ffffffffffffffffffffffffffffffffffffffff16815260200190815260200160002060010160026003811061227757fe5b602091828204019190069054906101000a900460ff1660ff16145b6122e7576040517f08c379a00000000000000000000000000000000000000000000000000000000081526004018080602001828103825260238152602001806139956023913960400191505060405180910390fd5b60008686868686604051602001808660ff1660ff1660f81b81526001018573ffffffffffffffffffffffffffffffffffffffff1673ffffffffffffffffffffffffffffffffffffffff1660601b815260140184848082843780830192505050828152602001955050505050506040516020818303038152906040528051906020012090506007600082815260200190815260200160002060000160149054906101000a900460ff166123e4576040517f08c379a000000000000000000000000000000000000000000000000000000000815260040180806020018281038252602f8152602001806138f8602f913960400191505060405180910390fd5b6007600082815260200190815260200160002060010160008360ff1660ff1681526020019081526020016000203390806001815401808255809150509060018203906000526020600020016000909192909190916101000a81548173ffffffffffffffffffffffffffffffffffffffff021916908373ffffffffffffffffffffffffffffffffffffffff160217905550507f43c853095c2752648493c88b4baac4d580d2594ffb00c6f1d4242d844514f7838686868686604051808673ffffffffffffffffffffffffffffffffffffffff1673ffffffffffffffffffffffffffffffffffffffff168152602001806020018481526020018360ff1660ff1681526020018281038252868682818152602001925080828437600081840152601f19601f820116905080830192505050965050505050505060405180910390a160036007600083815260200190815260200160002060010160008460ff1660ff1681526020019081526020016000208054905010612658577fe23f5229de535c091e3b7bec2665f5d698192d3b31393066e8987b7a05076b6c8686868686604051808673ffffffffffffffffffffffffffffffffffffffff1673ffffffffffffffffffffffffffffffffffffffff168152602001806020018481526020018360ff1660ff1681526020018281038252868682818152602001925080828437600081840152601f19601f820116905080830192505050965050505050505060405180910390a16126578686868080601f016020809104026020016040519081016040528093929190818152602001838380828437600081840152601f19601f8201169050808301925050505050505085856132d7565b5b50505050505050565b6000600260009054906101000a900473ffffffffffffffffffffffffffffffffffffffff1673ffffffffffffffffffffffffffffffffffffffff1663cd905dff6040518163ffffffff1660e01b815260040160206040518083038186803b1580156126cb57600080fd5b505afa1580156126df573d6000803e3d6000fd5b505050506040513d60208110156126f557600080fd5b8101908080519060200190929190505050905090565b600080600260009054906101000a900473ffffffffffffffffffffffffffffffffffffffff1673ffffffffffffffffffffffffffffffffffffffff1663cd905dff6040518163ffffffff1660e01b815260040160206040518083038186803b15801561277657600080fd5b505afa15801561278a573d6000803e3d6000fd5b505050506040513d60208110156127a057600080fd5b8101908080519060200190929190505050612806576040517f08c379a00000000000000000000000000000000000000000000000000000000081526004018080602001828103825260258152602001806139706025913960400191505060405180910390fd5b600260009054906101000a900473ffffffffffffffffffffffffffffffffffffffff1673ffffffffffffffffffffffffffffffffffffffff16630e248a11336040518263ffffffff1660e01b8152600401808273ffffffffffffffffffffffffffffffffffffffff1673ffffffffffffffffffffffffffffffffffffffff16815260200191505060206040518083038186803b1580156128a557600080fd5b505afa1580156128b9573d6000803e3d6000fd5b505050506040513d60208110156128cf57600080fd5b8101908080519060200190929190505050612952576040517f08c379a00000000000000000000000000000000000000000000000000000000081526004018080602001828103825260208152602001807f43616c6c6572206973206e6f742072656769737465726564206169726c696e6581525060200191505060405180910390fd5b600260009054906101000a900473ffffffffffffffffffffffffffffffffffffffff1673ffffffffffffffffffffffffffffffffffffffff1663f53b6d65336040518263ffffffff1660e01b8152600401808273ffffffffffffffffffffffffffffffffffffffff1673ffffffffffffffffffffffffffffffffffffffff16815260200191505060206040518083038186803b1580156129f157600080fd5b505afa158015612a05573d6000803e3d6000fd5b505050506040513d6020811015612a1b57600080fd5b8101908080519060200190929190505050612a9e576040517f08c379a000000000000000000000000000000000000000000000000000000000815260040180806020018281038252601c8152602001807f43616c6c6572206169726c696e65206973206e6f742066756e6465640000000081525060200191505060405180910390fd5b612aa7856107ab565b15612b1a576040517f08c379a000000000000000000000000000000000000000000000000000000000815260040180806020018281038252601d8152602001807f4169726c696e6520697320616c7265616479207265676973746572656400000081525060200191505060405180910390fd5b60009150600090506000600260009054906101000a900473ffffffffffffffffffffffffffffffffffffffff1673ffffffffffffffffffffffffffffffffffffffff166305e931f46040518163ffffffff1660e01b815260040160206040518083038186803b158015612b8c57600080fd5b505afa158015612ba0573d6000803e3d6000fd5b505050506040513d6020811015612bb657600080fd5b810190808051906020019092919050505090506004811015612cc857600260009054906101000a900473ffffffffffffffffffffffffffffffffffffffff1673ffffffffffffffffffffffffffffffffffffffff1663ee38a7498787876040518463ffffffff1660e01b8152600401808473ffffffffffffffffffffffffffffffffffffffff1673ffffffffffffffffffffffffffffffffffffffff168152602001806020018281038252848482818152602001925080828437600081840152601f19601f820116905080830192505050945050505050600060405180830381600087803b158015612ca757600080fd5b505af1158015612cbb573d6000803e3d6000fd5b5050505060019250612e4d565b6000612cf16002612ce360648561333790919063ffffffff16565b6133bd90919063ffffffff16565b9050612cfd8733613407565b600460008873ffffffffffffffffffffffffffffffffffffffff1673ffffffffffffffffffffffffffffffffffffffff16815260200190815260200160002054925080612d5460648561333790919063ffffffff16565b10612e4b57600260009054906101000a900473ffffffffffffffffffffffffffffffffffffffff1673ffffffffffffffffffffffffffffffffffffffff1663ee38a7498888886040518463ffffffff1660e01b8152600401808473ffffffffffffffffffffffffffffffffffffffff1673ffffffffffffffffffffffffffffffffffffffff168152602001806020018281038252848482818152602001925080828437600081840152601f19601f820116905080830192505050945050505050600060405180830381600087803b158015612e2e57600080fd5b505af1158015612e42573d6000803e3d6000fd5b50505050600193505b505b7ff82f49885b60b1ba87981f75ed953db359c2caa5239413fa2f93363abf5e4764838360405180831515151581526020018281526020019250505060405180910390a150935093915050565b6000612ea4336135cd565b905060008186868686604051602001808660ff1660ff1660f81b81526001018573ffffffffffffffffffffffffffffffffffffffff1673ffffffffffffffffffffffffffffffffffffffff1660601b8152601401848480828437808301925050508281526020019550505050505060405160208183030381529060405280519060200120905060405180604001604052803373ffffffffffffffffffffffffffffffffffffffff168152602001600115158152506007600083815260200190815260200160002060008201518160000160006101000a81548173ffffffffffffffffffffffffffffffffffffffff021916908373ffffffffffffffffffffffffffffffffffffffff16021790555060208201518160000160146101000a81548160ff0219169083151502179055509050507f3ed01f2c3fc24c6b329d931e35b03e390d23497d22b3f90e15b600343e93df118287878787604051808660ff1660ff1681526020018573ffffffffffffffffffffffffffffffffffffffff1673ffffffffffffffffffffffffffffffffffffffff168152602001806020018381526020018281038252858582818152602001925080828437600081840152601f19601f820116905080830192505050965050505050505060405180910390a1505050505050565b609681565b6000838383604051602001808473ffffffffffffffffffffffffffffffffffffffff1673ffffffffffffffffffffffffffffffffffffffff1660601b815260140183805190602001908083835b602083106130ff57805182526020820191506020810190506020830392506130dc565b6001836020036101000a03801982511681845116808217855250505050505090500182815260200193505050506040516020818303038152906040528051906020012090509392505050565b61315361380b565b61315b61380b565b613164836135cd565b8160006003811061317157fe5b602002019060ff16908160ff16815250508060006003811061318f57fe5b6020020151816001600381106131a157fe5b602002019060ff16908160ff16815250505b806000600381106131c057fe5b602002015160ff16816001600381106131d557fe5b602002015160ff16141561320f576131ec836135cd565b816001600381106131f957fe5b602002019060ff16908160ff16815250506131b3565b8060016003811061321c57fe5b60200201518160026003811061322e57fe5b602002019060ff16908160ff16815250505b8060006003811061324d57fe5b602002015160ff168160026003811061326257fe5b602002015160ff16148061329d57508060016003811061327e57fe5b602002015160ff168160026003811061329357fe5b602002015160ff16145b156132ce576132ab836135cd565b816002600381106132b857fe5b602002019060ff16908160ff1681525050613240565b80915050919050565b60006132e485858561308f565b9050426001600083815260200190815260200160002060010181905550816001600083815260200190815260200160002060000160016101000a81548160ff021916908360ff1602179055505050505050565b60008083141561334a57600090506133b7565b600082840290508284828161335b57fe5b04146133b2576040517f08c379a000000000000000000000000000000000000000000000000000000000815260040180806020018281038252602181526020018061394f6021913960400191505060405180910390fd5b809150505b92915050565b60006133ff83836040518060400160405280601a81526020017f536166654d6174683a206469766973696f6e206279207a65726f0000000000008152506136bd565b905092915050565b60001515600360008473ffffffffffffffffffffffffffffffffffffffff1673ffffffffffffffffffffffffffffffffffffffff16815260200190815260200160002060008373ffffffffffffffffffffffffffffffffffffffff1673ffffffffffffffffffffffffffffffffffffffff16815260200190815260200160002060009054906101000a900460ff16151514156135c9576001600360008473ffffffffffffffffffffffffffffffffffffffff1673ffffffffffffffffffffffffffffffffffffffff16815260200190815260200160002060008373ffffffffffffffffffffffffffffffffffffffff1673ffffffffffffffffffffffffffffffffffffffff16815260200190815260200160002060006101000a81548160ff0219169083151502179055506135856001600460008573ffffffffffffffffffffffffffffffffffffffff1673ffffffffffffffffffffffffffffffffffffffff1681526020019081526020016000205461378390919063ffffffff16565b600460008473ffffffffffffffffffffffffffffffffffffffff1673ffffffffffffffffffffffffffffffffffffffff168152602001908152602001600020819055505b5050565b600080600a905060008160ff166005600081819054906101000a900460ff168092919060010191906101000a81548160ff021916908360ff16021790555060ff1643034085604051602001808381526020018273ffffffffffffffffffffffffffffffffffffffff1673ffffffffffffffffffffffffffffffffffffffff1660601b8152601401925050506040516020818303038152906040528051906020012060001c8161367857fe5b06905060fa600560009054906101000a900460ff1660ff1611156136b3576000600560006101000a81548160ff021916908360ff1602179055505b8092505050919050565b60008083118290613769576040517f08c379a00000000000000000000000000000000000000000000000000000000081526004018080602001828103825283818151815260200191508051906020019080838360005b8381101561372e578082015181840152602081019050613713565b50505050905090810190601f16801561375b5780820380516001836020036101000a031916815260200191505b509250505060405180910390fd5b50600083858161377557fe5b049050809150509392505050565b600080828401905083811015613801576040517f08c379a000000000000000000000000000000000000000000000000000000000815260040180806020018281038252601b8152602001807f536166654d6174683a206164646974696f6e206f766572666c6f77000000000081525060200191505060405180910390fd5b8091505092915050565b6040518060600160405280600390602082028038833980820191505090505090565b826003601f016020900481019282156138b65791602002820160005b8382111561388757835183826101000a81548160ff021916908360ff1602179055509260200192600101602081600001049283019260010302613849565b80156138b45782816101000a81549060ff0219169055600101602081600001049283019260010302613887565b505b5090506138c391906138c7565b5090565b6138f491905b808211156138f057600081816101000a81549060ff0219169055506001016138cd565b5090565b9056fe466c69676874206f722074696d657374616d7020646f206e6f74206d61746368206f7261636c652072657175657374496e737572616e6365206973206e6f74206265666f726520666c696768742074696d657374616d70536166654d6174683a206d756c7469706c69636174696f6e206f766572666c6f77436f6e74726163742069732063757272656e746c79206e6f74206f7065726174696f6e616c496e64657820646f6573206e6f74206d61746368206f7261636c65207265717565737456616c75652073656e742062792063616c6c65722069732061626f766520696e737572616e636520636f7374a265627a7a7231582060f7dd27b3a33ca4aa0d5b3d4b5ab13129f49f35a081f0f9fdf2aeb6ebab086564736f6c63430005100032",
  "source": "pragma solidity ^ 0.5 .8;\n\n// It's important to avoid vulnerabilities due to numeric overflow bugs\n// OpenZeppelin's SafeMath library, when used correctly, protects agains such bugs\n// More info: https://www.nccgroup.trust/us/about-us/newsroom-and-events/blog/2018/november/smart-contract-insecurity-bad-arithmetic/\n\nimport \"../node_modules/openzeppelin-solidity/contracts/math/SafeMath.sol\";\n\n/************************************************** */\n/* FlightSurety Smart Contract                      */\n/************************************************** */\ncontract FlightSuretyApp {\n    using SafeMath for uint256; // Allow SafeMath functions to be called for all uint256 types (similar to \"prototype\" in Javascript)\n\n    /********************************************************************************************/\n    /*                                       DATA VARIABLES                                     */\n    /********************************************************************************************/\n\n    // Flight status codees\n    uint8 private constant STATUS_CODE_UNKNOWN = 0;\n    uint8 private constant STATUS_CODE_ON_TIME = 10;\n    uint8 private constant STATUS_CODE_LATE_AIRLINE = 20;\n    uint8 private constant STATUS_CODE_LATE_WEATHER = 30;\n    uint8 private constant STATUS_CODE_LATE_TECHNICAL = 40;\n    uint8 private constant STATUS_CODE_LATE_OTHER = 50;\n\n    uint256 private constant AIRLINES_THRESHOLD = 4;\n    uint256 public constant MAX_INSURANCE_COST = 1 ether;\n    uint256 public constant INSURANCE_RETURN_PERCENTAGE = 150;\n    uint256 public constant MINIMUM_FUND = 10 ether;\n\n    address private contractOwner; // Account used to deploy contract\n\n    struct Flight {\n        bool isRegistered;\n        uint8 statusCode;\n        uint256 updatedTimestamp;\n        address airAcccount;\n    }\n    mapping(bytes32 => Flight) private flights;\n\n    FlightSuretyData internal flightSuretyData;\n\n    mapping(address => mapping(address => bool)) private airVotes;\n    mapping(address => uint256) private airVotesCount;\n\n    event FlightRegistered(\n        address airAcccount,\n        string airName,\n        uint256 timestamp\n    );\n\n    event FlightRegisteredDApp(\n        bool success,\n        uint256 votes\n    );\n\n    /********************************************************************************************/\n    /*                                       FUNCTION MODIFIERS                                 */\n    /********************************************************************************************/\n\n    // Modifiers help avoid duplication of code. They are typically used to validate something\n    // before a function is allowed to be executed.\n\n    /**\n     * @dev Modifier that requires the \"operational\" boolean variable to be \"true\"\n     *      This is used on all state changing functions to pause the contract in \n     *      the event there is an issue that needs to be fixed\n     */\n    modifier requireIsOperational() {\n        require(flightSuretyData.isOperational(), \"Contract is currently not operational\");\n        _; // All modifiers require an \"_\" which indicates where the function body will be added\n    }\n\n    /**\n     * @dev Modifier that requires the \"ContractOwner\" account to be the function caller\n     */\n    modifier requireContractOwner() {\n        require(msg.sender == contractOwner, \"Caller is not contract owner\");\n        _;\n    }\n\n    /**\n     * @dev Modifier that requires sender account to be the function caller\n     */\n    modifier requireIsAirline() {\n        require(flightSuretyData.isAirline(msg.sender), \"Caller is not registered airline\");\n        _;\n    }\n\n    /**\n     * @dev Modifier that requires an airline account to be the function caller\n     */\n    modifier requireFundedAirline() {\n        require(flightSuretyData.isAirlineFunded(msg.sender), \"Caller airline is not funded\");\n        _;\n    }\n\n    /**\n     * @dev Modifier that requires a timestamp to be of future\n     */\n    modifier requireIsFutureFlight(uint256 _timestamp) {\n        require(_timestamp > block.timestamp, \"Flight is not in future\");\n        _;\n    }\n\n    /**\n     * @dev Modifier that requires a minimum fund to interact\n     */\n    modifier requireIsMinimumFunded() {\n        require(msg.value >= MINIMUM_FUND, \"Not enough funds\");\n        _;\n    }\n\n    /********************************************************************************************/\n    /*                                       CONSTRUCTOR                                        */\n    /********************************************************************************************/\n\n    /**\n     * @dev Contract constructor\n     *\n     */\n    constructor(\n        address payable dataContract\n    )\n    public {\n        contractOwner = msg.sender;\n        flightSuretyData = FlightSuretyData(\n            dataContract\n        );\n    }\n\n    /********************************************************************************************/\n    /*                                       UTILITY FUNCTIONS                                  */\n    /********************************************************************************************/\n\n    function isOperational()\n    public\n    view\n    returns(bool) {\n        return flightSuretyData.isOperational();\n    }\n\n    function isAirline(\n        address _airAcccount\n    ) public\n    view\n    returns(bool) {\n        return flightSuretyData.isAirline(_airAcccount);\n    }\n\n    /********************************************************************************************/\n    /*                                     SMART CONTRACT FUNCTIONS                             */\n    /********************************************************************************************/\n\n    /**\n     * @dev Send funds to the contract, to be called by the airlines\n     *\n     */\n    function fund()\n    external\n    payable\n    requireIsOperational\n    requireIsAirline {\n        flightSuretyData\n            .fund\n            .value(msg.value)(msg.sender);\n    }\n\n    /**\n     * @dev Add votes to add an airline to the registration queue\n     *\n     */\n    function addVote(\n        address _airAcccount,\n        address _callerairAcccount\n    ) internal {\n        if (airVotes[_airAcccount][_callerairAcccount] == false) {\n            airVotes[_airAcccount][_callerairAcccount] = true;\n            airVotesCount[_airAcccount] = airVotesCount[_airAcccount].add(1);\n        }\n    }\n\n    /**\n     * @dev Add an airline to the registration queue\n     *\n     */\n    function registerAirline(\n        address _airAcccount,\n        string calldata _airName\n    )\n    external\n    requireIsOperational\n    requireIsAirline\n    requireFundedAirline\n    returns(bool success, uint256 votes) {\n        require(!isAirline(_airAcccount), \"Airline is already registered\");\n        success = false;\n        votes = 0;\n        uint256 airlinesCount = flightSuretyData.getAirlinesCount();\n        if (airlinesCount < AIRLINES_THRESHOLD) {\n            flightSuretyData.registerAirline(_airAcccount, _airName);\n            success = true;\n        } else {\n            uint256 votesNeeded = airlinesCount.mul(100).div(2);\n            addVote(_airAcccount, msg.sender);\n            votes = airVotesCount[_airAcccount];\n            if (votes.mul(100) >= votesNeeded) {\n                flightSuretyData.registerAirline(_airAcccount, _airName);\n                success = true;\n            }\n        }\n        emit FlightRegisteredDApp(success, votes);\n    }\n\n    /**\n     * @dev Register a future flight for insuring.\n     *\n     */\n    function registerFlight(\n        string calldata _airName,\n        uint256 _timestamp\n    ) external\n    requireIsOperational\n    requireIsAirline\n    requireFundedAirline\n    requireIsFutureFlight(_timestamp) {\n        bytes32 flightKey = getFlightKey(msg.sender, _airName, _timestamp);\n        flights[flightKey] = Flight(\n            true,\n            STATUS_CODE_UNKNOWN,\n            block.timestamp,\n            msg.sender\n        );\n        emit FlightRegistered(msg.sender, _airName, _timestamp);\n    }\n\n    /**\n     * @dev Called after oracle has updated flight status\n     *\n     */\n    function processFlightStatus(\n        address _airAcccount,\n        string memory _airName,\n        uint256 _timestamp,\n        uint8 _statusCode\n    )\n    internal {\n        bytes32 flightKey = getFlightKey(_airAcccount, _airName, _timestamp);\n        flights[flightKey].updatedTimestamp = block.timestamp;\n        flights[flightKey].statusCode = _statusCode;\n    }\n\n    // Generate a request for oracles to fetch flight information\n    function fetchFlightStatus(\n        address _airAcccount,\n        string calldata _airName,\n        uint256 _timestamp\n    ) external {\n        uint8 index = getRandomIndex(msg.sender);\n        // Generate a unique key for storing the request\n        bytes32 key = keccak256(abi.encodePacked(index, _airAcccount, _airName, _timestamp));\n        oracleResponses[key] = ResponseInfo({\n            requester: msg.sender,\n            isOpen: true\n        });\n        emit OracleRequest(index, _airAcccount, _airName, _timestamp);\n    }\n\n    /**\n     * @dev Buy insurance for a flight\n     *\n     */\n    function buyInsurance(\n        address _airAcccount,\n        string calldata _airName,\n        uint256 _timestamp\n    ) external\n    payable\n    requireIsOperational {\n        require(!isAirline(msg.sender), \"Caller is airline itself\");\n        require(block.timestamp < _timestamp, \"Insurance is not before flight timestamp\");\n        require(msg.value <= MAX_INSURANCE_COST, \"Value sent by caller is above insurance cost\");\n        bytes32 flightKey = getFlightKey(_airAcccount, _airName, _timestamp);\n        require(flights[flightKey].isRegistered == true, \"Airline is not registered\");\n        flightSuretyData\n            .buy\n            .value(msg.value)(\n                msg.sender,\n                _airAcccount,\n                _airName,\n                _timestamp\n            );\n    }\n\n    /**\n     *  @dev get amount paid by insuree\n     *\n     */\n    function getAmountPaidByInsuree(\n        address _airAcccount,\n        string calldata _airName,\n        uint256 _timestamp\n    ) external\n    view\n    returns(uint256) {\n        bytes32 flightKey = getFlightKey(_airAcccount, _airName, _timestamp);\n        require(flights[flightKey].isRegistered == true, \"Flight not registered\");\n        return flightSuretyData.getAmountPaidByInsuree(msg.sender, _airAcccount, _airName, _timestamp);\n    }\n\n    /**\n     * @dev Claim credit for a delayed flight.\n     *\n     */\n    function claimCredit(\n        address _airAcccount,\n        string calldata _airName,\n        uint256 _timestamp\n    ) external\n    requireIsOperational {\n        bytes32 flightKey = getFlightKey(_airAcccount, _airName, _timestamp);\n        require(flights[flightKey].statusCode == STATUS_CODE_LATE_AIRLINE, \"Flight status is not late\");\n        require(block.timestamp > flights[flightKey].updatedTimestamp, \"Claim not allowed yet\");\n        flightSuretyData.creditInsurees(\n            INSURANCE_RETURN_PERCENTAGE,\n            _airAcccount,\n            _airName,\n            _timestamp\n        );\n    }\n\n    /**\n     * @dev Withdraw credits to insuree\n     *\n     */\n    function withdrawCredits()\n    external\n    requireIsOperational {\n        require(flightSuretyData.getInsureePayoutCredits(msg.sender) > 0, \"No credits available\");\n        flightSuretyData.pay(msg.sender);\n    }\n\n    // region ORACLE MANAGEMENT\n\n    // Incremented to add pseudo-randomness at various points\n    uint8 private nonce = 0;\n\n    // Fee to be paid when registering oracle\n    uint256 public constant REGISTRATION_FEE = 1 ether;\n\n    // Number of oracles that must respond for valid status\n    uint256 private constant MIN_RESPONSES = 3;\n\n    struct Oracle {\n        bool isRegistered;\n        uint8[3] indexes;\n    }\n\n    // Track all registered oracles\n    mapping(address => Oracle) private oracles;\n\n    // Model for responses from oracles\n    struct ResponseInfo {\n        address requester; // Account that requested status\n        bool isOpen; // If open, oracle responses are accepted\n        mapping(uint8 => address[]) responses; // Mapping key is the status code reported\n        // This lets us group responses and identify\n        // the response that majority of the oracles\n    }\n\n    // Track all oracle responses\n    // Key = hash(index, flight, timestamp)\n    mapping(bytes32 => ResponseInfo) private oracleResponses;\n\n    // Event fired each time an oracle submits a response\n    event FlightStatusInfo(address airline, string flight, uint256 timestamp, uint8 status);\n\n    event OracleReport(address airline, string flight, uint256 timestamp, uint8 status);\n\n    // Event fired when flight status request is submitted\n    // Oracles track this and if they have a matching index\n    // they fetch data and submit a response\n    event OracleRequest(uint8 index, address airline, string flight, uint256 timestamp);\n\n    // Register an oracle with the contract\n    function registerOracle()\n    external\n    payable {\n        // Require registration fee\n        require(msg.value >= REGISTRATION_FEE, \"Registration fee is required\");\n        uint8[3] memory indexes = generateIndexes(msg.sender);\n        oracles[msg.sender] = Oracle({\n            isRegistered: true,\n            indexes: indexes\n        });\n    }\n\n    function getMyIndexes()\n    view\n    external\n    returns(uint8[3] memory) {\n        require(oracles[msg.sender].isRegistered, \"Not registered as an oracle\");\n        return oracles[msg.sender].indexes;\n    }\n\n    // Called by oracle when a response is available to an outstanding request\n    // For the response to be accepted, there must be a pending request that is open\n    // and matches one of the three Indexes randomly assigned to the oracle at the\n    // time of registration (i.e. uninvited oracles are not welcome)\n    function submitOracleResponse(\n        uint8 index,\n        address airline,\n        string calldata flight,\n        uint256 timestamp,\n        uint8 statusCode\n    )\n    external {\n        require((oracles[msg.sender].indexes[0] == index) || (oracles[msg.sender].indexes[1] == index) || (oracles[msg.sender].indexes[2] == index), \"Index does not match oracle request\");\n        bytes32 key = keccak256(abi.encodePacked(index, airline, flight, timestamp));\n        require(oracleResponses[key].isOpen, \"Flight or timestamp do not match oracle request\");\n        oracleResponses[key].responses[statusCode].push(msg.sender);\n        // Information isn't considered verified until at least MIN_RESPONSES\n        // oracles respond with the *** same *** information\n        emit OracleReport(airline, flight, timestamp, statusCode);\n        if (oracleResponses[key].responses[statusCode].length >= MIN_RESPONSES) {\n            emit FlightStatusInfo(airline, flight, timestamp, statusCode);\n            // Handle flight status as appropriate\n            processFlightStatus(airline, flight, timestamp, statusCode);\n        }\n    }\n\n    function getFlightKey(\n        address airline,\n        string memory flight,\n        uint256 timestamp\n    )\n    pure\n    internal\n    returns(bytes32) {\n        return keccak256(abi.encodePacked(airline, flight, timestamp));\n    }\n\n    // Returns array of three non-duplicating integers from 0-9\n    function generateIndexes(\n        address account\n    ) internal\n    returns(uint8[3] memory) {\n        uint8[3] memory indexes;\n        indexes[0] = getRandomIndex(account);\n        indexes[1] = indexes[0];\n        while (indexes[1] == indexes[0]) {\n            indexes[1] = getRandomIndex(account);\n        }\n        indexes[2] = indexes[1];\n        while ((indexes[2] == indexes[0]) || (indexes[2] == indexes[1])) {\n            indexes[2] = getRandomIndex(account);\n        }\n        return indexes;\n    }\n\n    // Returns array of three non-duplicating integers from 0-9\n    function getRandomIndex(\n        address account\n    )\n    internal\n    returns(uint8) {\n        uint8 maxValue = 10;\n        // Pseudo random number...the incrementing nonce adds variation\n        uint8 random = uint8(uint256(keccak256(abi.encodePacked(blockhash(block.number - nonce++), account))) % maxValue);\n        if (nonce > 250) {\n            nonce = 0; // Can only fetch blockhashes for last 256 blocks so we adapt\n        }\n        return random;\n    }\n    // endregion\n\n}\n\n// Interface to the data contract FlightSuretyData.sol\ninterface FlightSuretyData {\n\n    function isOperational() external view returns(bool);\n\n    function isAirline(address airAcccount) external view returns(bool);\n\n    function isAirlineFunded(address airAcccount) external view returns(bool);\n\n    function getAirlinesCount() external view returns(uint256);\n\n    function registerAirline(address airAcccount, string calldata airName) external;\n\n    function buy(address payable insureeAcc, address airAcccount, string calldata airName, uint256 timestamp) external payable;\n\n    function getAmountPaidByInsuree(address payable insureeAcc, address airAcccount, string calldata airName, uint256 timestamp) external view returns(uint256 amountPaid);\n\n    function creditInsurees(uint256 creditPercentage, address airAcccount, string calldata airName, uint256 timestamp) external;\n\n    function getInsureePayoutCredits(address payable insureeAcc) external view returns(uint256 amount);\n\n    function pay(address payable insureeAcc) external;\n\n    function fund(address airAcccount) external payable;\n}",
  "sourcePath": "/Users/nitya/projects/Udacity/blockchain developer/udacity-nanodegree/FlightSurety/contracts/FlightSuretyApp.sol",
  "compiler": {
    "name": "solc",
    "version": "0.5.16+commit.9c3226ce.Emscripten.clang"
  },
  "schemaVersion": "3.2.0",
  "updatedAt": "2020-06-20T19:12:38.538Z",
  "networkType": "ethereum",
  "devdoc": {
    "methods": {
      "buyInsurance(address,string,uint256)": {
        "details": "Buy insurance for a flight     "
      },
      "claimCredit(address,string,uint256)": {
        "details": "Claim credit for a delayed flight.     "
      },
      "constructor": {
        "details": "Contract constructor     "
      },
      "fund()": {
        "details": "Send funds to the contract, to be called by the airlines     "
      },
      "getAmountPaidByInsuree(address,string,uint256)": {
        "details": "get amount paid by insuree     "
      },
      "registerAirline(address,string)": {
        "details": "Add an airline to the registration queue     "
      },
      "registerFlight(string,uint256)": {
        "details": "Register a future flight for insuring.     "
      },
      "withdrawCredits()": {
        "details": "Withdraw credits to insuree     "
      }
    }
  },
  "userdoc": {
    "methods": {
      "isOperational()": {
        "notice": "*****************************************************************************************"
      }
    },
    "notice": "************************************************ "
  }
}